{
  "contractName": "ERC721",
  "abi": [
    {
      "inputs": [
        {
          "internalType": "bytes",
          "name": "nameOfCollection",
          "type": "bytes"
        },
        {
          "internalType": "bytes",
          "name": "symbolOfCollection",
          "type": "bytes"
        }
      ],
      "stateMutability": "nonpayable",
      "type": "constructor"
    },
    {
      "anonymous": false,
      "inputs": [
        {
          "indexed": true,
          "internalType": "address",
          "name": "_owner",
          "type": "address"
        },
        {
          "indexed": true,
          "internalType": "address",
          "name": "_approved",
          "type": "address"
        },
        {
          "indexed": true,
          "internalType": "uint256",
          "name": "_tokenId",
          "type": "uint256"
        }
      ],
      "name": "Approval",
      "type": "event"
    },
    {
      "anonymous": false,
      "inputs": [
        {
          "indexed": true,
          "internalType": "address",
          "name": "_owner",
          "type": "address"
        },
        {
          "indexed": true,
          "internalType": "address",
          "name": "_operator",
          "type": "address"
        },
        {
          "indexed": false,
          "internalType": "bool",
          "name": "_approved",
          "type": "bool"
        }
      ],
      "name": "ApprovalForAll",
      "type": "event"
    },
    {
      "anonymous": false,
      "inputs": [
        {
          "indexed": false,
          "internalType": "address",
          "name": "ownerOfCollection",
          "type": "address"
        },
        {
          "indexed": false,
          "internalType": "bytes",
          "name": "nameOfCollection",
          "type": "bytes"
        },
        {
          "indexed": false,
          "internalType": "bytes",
          "name": "symbolOfCollection",
          "type": "bytes"
        }
      ],
      "name": "CollectionCreate",
      "type": "event"
    },
    {
      "anonymous": false,
      "inputs": [
        {
          "indexed": false,
          "internalType": "bytes",
          "name": "previousName",
          "type": "bytes"
        },
        {
          "indexed": false,
          "internalType": "bytes",
          "name": "currentName",
          "type": "bytes"
        },
        {
          "indexed": false,
          "internalType": "bytes",
          "name": "previousSymbol",
          "type": "bytes"
        },
        {
          "indexed": false,
          "internalType": "bytes",
          "name": "currentSymbol",
          "type": "bytes"
        }
      ],
      "name": "CollectionRename",
      "type": "event"
    },
    {
      "anonymous": false,
      "inputs": [
        {
          "indexed": true,
          "internalType": "address",
          "name": "_from",
          "type": "address"
        },
        {
          "indexed": true,
          "internalType": "address",
          "name": "_to",
          "type": "address"
        },
        {
          "indexed": true,
          "internalType": "uint256",
          "name": "_tokenId",
          "type": "uint256"
        }
      ],
      "name": "Transfer",
      "type": "event"
    },
    {
      "inputs": [],
      "name": "collectionName",
      "outputs": [
        {
          "internalType": "bytes",
          "name": "",
          "type": "bytes"
        }
      ],
      "stateMutability": "view",
      "type": "function",
      "constant": true
    },
    {
      "inputs": [],
      "name": "collectionOwner",
      "outputs": [
        {
          "internalType": "address",
          "name": "",
          "type": "address"
        }
      ],
      "stateMutability": "view",
      "type": "function",
      "constant": true
    },
    {
      "inputs": [],
      "name": "collectionSymbol",
      "outputs": [
        {
          "internalType": "bytes",
          "name": "",
          "type": "bytes"
        }
      ],
      "stateMutability": "view",
      "type": "function",
      "constant": true
    },
    {
      "inputs": [],
      "name": "lastNftIndexOfCollection",
      "outputs": [
        {
          "internalType": "uint256",
          "name": "",
          "type": "uint256"
        }
      ],
      "stateMutability": "view",
      "type": "function",
      "constant": true
    },
    {
      "inputs": [],
      "name": "totalSupplyCounter",
      "outputs": [
        {
          "internalType": "uint256",
          "name": "",
          "type": "uint256"
        }
      ],
      "stateMutability": "view",
      "type": "function",
      "constant": true
    },
    {
      "inputs": [
        {
          "internalType": "bytes4",
          "name": "interfaceID",
          "type": "bytes4"
        }
      ],
      "name": "supportsInterface",
      "outputs": [
        {
          "internalType": "bool",
          "name": "",
          "type": "bool"
        }
      ],
      "stateMutability": "pure",
      "type": "function",
      "constant": true
    },
    {
      "inputs": [],
      "name": "name",
      "outputs": [
        {
          "internalType": "string",
          "name": "",
          "type": "string"
        }
      ],
      "stateMutability": "view",
      "type": "function",
      "constant": true
    },
    {
      "inputs": [],
      "name": "symbol",
      "outputs": [
        {
          "internalType": "string",
          "name": "",
          "type": "string"
        }
      ],
      "stateMutability": "view",
      "type": "function",
      "constant": true
    },
    {
      "inputs": [
        {
          "internalType": "address",
          "name": "ownerAddress",
          "type": "address"
        },
        {
          "internalType": "uint256",
          "name": "tokenId",
          "type": "uint256"
        },
        {
          "internalType": "bytes",
          "name": "metadataURI",
          "type": "bytes"
        }
      ],
      "name": "mint",
      "outputs": [
        {
          "internalType": "bool",
          "name": "",
          "type": "bool"
        }
      ],
      "stateMutability": "nonpayable",
      "type": "function"
    },
    {
      "inputs": [
        {
          "internalType": "uint256",
          "name": "tokenId",
          "type": "uint256"
        }
      ],
      "name": "burn",
      "outputs": [
        {
          "internalType": "bool",
          "name": "",
          "type": "bool"
        }
      ],
      "stateMutability": "nonpayable",
      "type": "function"
    },
    {
      "inputs": [],
      "name": "totalSupply",
      "outputs": [
        {
          "internalType": "uint256",
          "name": "",
          "type": "uint256"
        }
      ],
      "stateMutability": "view",
      "type": "function",
      "constant": true
    },
    {
      "inputs": [
        {
          "internalType": "uint256",
          "name": "_tokenId",
          "type": "uint256"
        }
      ],
      "name": "tokenURI",
      "outputs": [
        {
          "internalType": "string",
          "name": "",
          "type": "string"
        }
      ],
      "stateMutability": "view",
      "type": "function",
      "constant": true
    },
    {
      "inputs": [
        {
          "internalType": "uint256",
          "name": "_index",
          "type": "uint256"
        }
      ],
      "name": "tokenByIndex",
      "outputs": [
        {
          "internalType": "uint256",
          "name": "",
          "type": "uint256"
        }
      ],
      "stateMutability": "view",
      "type": "function",
      "constant": true
    },
    {
      "inputs": [
        {
          "internalType": "address",
          "name": "_owner",
          "type": "address"
        }
      ],
      "name": "balanceOf",
      "outputs": [
        {
          "internalType": "uint256",
          "name": "",
          "type": "uint256"
        }
      ],
      "stateMutability": "view",
      "type": "function",
      "constant": true
    },
    {
      "inputs": [
        {
          "internalType": "address",
          "name": "_owner",
          "type": "address"
        },
        {
          "internalType": "uint256",
          "name": "_index",
          "type": "uint256"
        }
      ],
      "name": "tokenOfOwnerByIndex",
      "outputs": [
        {
          "internalType": "uint256",
          "name": "",
          "type": "uint256"
        }
      ],
      "stateMutability": "view",
      "type": "function",
      "constant": true
    },
    {
      "inputs": [
        {
          "internalType": "uint256",
          "name": "_tokenId",
          "type": "uint256"
        }
      ],
      "name": "ownerOf",
      "outputs": [
        {
          "internalType": "address",
          "name": "",
          "type": "address"
        }
      ],
      "stateMutability": "view",
      "type": "function",
      "constant": true
    },
    {
      "inputs": [
        {
          "internalType": "bytes",
          "name": "newName",
          "type": "bytes"
        },
        {
          "internalType": "bytes",
          "name": "newSymbol",
          "type": "bytes"
        }
      ],
      "name": "collectionRename",
      "outputs": [],
      "stateMutability": "nonpayable",
      "type": "function"
    },
    {
      "inputs": [
        {
          "internalType": "address",
          "name": "_from",
          "type": "address"
        },
        {
          "internalType": "address",
          "name": "_to",
          "type": "address"
        },
        {
          "internalType": "uint256",
          "name": "_tokenId",
          "type": "uint256"
        }
      ],
      "name": "safeTransferFrom",
      "outputs": [],
      "stateMutability": "payable",
      "type": "function",
      "payable": true
    },
    {
      "inputs": [
        {
          "internalType": "address",
          "name": "_from",
          "type": "address"
        },
        {
          "internalType": "address",
          "name": "_to",
          "type": "address"
        },
        {
          "internalType": "uint256",
          "name": "_tokenId",
          "type": "uint256"
        },
        {
          "internalType": "bytes",
          "name": "data",
          "type": "bytes"
        }
      ],
      "name": "safeTransferFrom",
      "outputs": [],
      "stateMutability": "payable",
      "type": "function",
      "payable": true
    },
    {
      "inputs": [
        {
          "internalType": "address",
          "name": "_from",
          "type": "address"
        },
        {
          "internalType": "address",
          "name": "_to",
          "type": "address"
        },
        {
          "internalType": "uint256",
          "name": "_tokenId",
          "type": "uint256"
        }
      ],
      "name": "transferFrom",
      "outputs": [],
      "stateMutability": "payable",
      "type": "function",
      "payable": true
    },
    {
      "inputs": [
        {
          "internalType": "address",
          "name": "_approved",
          "type": "address"
        },
        {
          "internalType": "uint256",
          "name": "_tokenId",
          "type": "uint256"
        }
      ],
      "name": "approve",
      "outputs": [],
      "stateMutability": "payable",
      "type": "function",
      "payable": true
    },
    {
      "inputs": [
        {
          "internalType": "address",
          "name": "_operator",
          "type": "address"
        },
        {
          "internalType": "bool",
          "name": "_approved",
          "type": "bool"
        }
      ],
      "name": "setApprovalForAll",
      "outputs": [],
      "stateMutability": "nonpayable",
      "type": "function"
    },
    {
      "inputs": [
        {
          "internalType": "uint256",
          "name": "_tokenId",
          "type": "uint256"
        }
      ],
      "name": "getApproved",
      "outputs": [
        {
          "internalType": "address",
          "name": "",
          "type": "address"
        }
      ],
      "stateMutability": "view",
      "type": "function",
      "constant": true
    },
    {
      "inputs": [
        {
          "internalType": "address",
          "name": "_owner",
          "type": "address"
        },
        {
          "internalType": "address",
          "name": "_operator",
          "type": "address"
        }
      ],
      "name": "isApprovedForAll",
      "outputs": [
        {
          "internalType": "bool",
          "name": "",
          "type": "bool"
        }
      ],
      "stateMutability": "view",
      "type": "function",
      "constant": true
    },
    {
      "inputs": [
        {
          "internalType": "address",
          "name": "_operator",
          "type": "address"
        },
        {
          "internalType": "address",
          "name": "_from",
          "type": "address"
        },
        {
          "internalType": "uint256",
          "name": "_tokenId",
          "type": "uint256"
        },
        {
          "internalType": "bytes",
          "name": "_data",
          "type": "bytes"
        }
      ],
      "name": "onERC721Received",
      "outputs": [
        {
          "internalType": "bytes4",
          "name": "",
          "type": "bytes4"
        }
      ],
      "stateMutability": "nonpayable",
      "type": "function"
    }
  ],
  "bytecode": "0x60806040523480156200001157600080fd5b5060405162001fae38038062001fae833981016040819052620000349162000218565b600080546001600160a01b0319163317905581516200005b906001906020850190620000c7565b50805162000071906002906020840190620000c7565b506000546040517fd9f54822c481f9bbb4b5ebbba6af6683ca4509010aff7fb8ecda36301f3989d091620000b7916001600160a01b03909116906001906002906200032c565b60405180910390a15050620003d8565b828054620000d59062000385565b90600052602060002090601f016020900481019282620000f9576000855562000144565b82601f106200011457805160ff191683800117855562000144565b8280016001018555821562000144579182015b828111156200014457825182559160200191906001019062000127565b506200015292915062000156565b5090565b5b8082111562000152576000815560010162000157565b600082601f8301126200017e578081fd5b81516001600160401b03808211156200019b576200019b620003c2565b6040516020601f8401601f1916820181018381118382101715620001c357620001c3620003c2565b6040528382528584018101871015620001da578485fd5b8492505b83831015620001fd5785830181015182840182015291820191620001de565b838311156200020e57848185840101525b5095945050505050565b600080604083850312156200022b578182fd5b82516001600160401b038082111562000242578384fd5b62000250868387016200016d565b9350602085015191508082111562000266578283fd5b5062000275858286016200016d565b9150509250929050565b8054600090600281046001808316806200029a57607f831692505b6020808410821415620002bb57634e487b7160e01b86526022600452602486fd5b620002c784896200037c565b828015620002de5760018114620002f0576200031f565b60ff198716825282820197506200031f565b620002fb8962000370565b60005b878110156200031957815484820152908601908401620002fe565b83019850505b5050505050505092915050565b6001600160a01b038416815260606020820181905260009062000352908301856200027f565b82810360408401526200036681856200027f565b9695505050505050565b60009081526020902090565b90815260200190565b6002810460018216806200039a57607f821691505b60208210811415620003bc57634e487b7160e01b600052602260045260246000fd5b50919050565b634e487b7160e01b600052604160045260246000fd5b611bc680620003e86000396000f3fe6080604052600436106101665760003560e01c806342966c68116100d1578063a22cb4651161008a578063df727d3b11610064578063df727d3b146103ec578063e5326ab114610401578063e985e9c514610416578063eb6faa091461043657610166565b8063a22cb46514610399578063b88d4fde146103b9578063c87b56dd146103cc57610166565b806342966c68146102e45780634f6ccce7146103045780636352211e1461032457806370a082311461034457806394d008ef1461036457806395d89b411461038457610166565b80631e642a04116101235780631e642a0414610254578063204a875a1461027457806323b872dd146102895780632f39352a1461029c5780632f745c59146102b157806342842e0e146102d157610166565b806301ffc9a71461016b57806306fdde03146101a1578063081812fc146101c3578063095ea7b3146101f0578063150b7a021461020557806318160ddd14610232575b600080fd5b34801561017757600080fd5b5061018b6101863660046116d6565b61044b565b6040516101989190611914565b60405180910390f35b3480156101ad57600080fd5b506101b66104bb565b6040516101989190611934565b3480156101cf57600080fd5b506101e36101de36600461176b565b61054d565b6040516101989190611899565b6102036101fe366004611655565b610568565b005b34801561021157600080fd5b506102256102203660046115ae565b6105ee565b604051610198919061191f565b34801561023e57600080fd5b50610247610686565b6040516101989190611a9f565b34801561026057600080fd5b5061020361026f36600461170e565b61068c565b34801561028057600080fd5b50610247610719565b610203610297366004611573565b61071f565b3480156102a857600080fd5b506101b661098b565b3480156102bd57600080fd5b506102476102cc366004611655565b610a19565b6102036102df366004611573565b610a7a565b3480156102f057600080fd5b5061018b6102ff36600461176b565b610ad8565b34801561031057600080fd5b5061024761031f36600461176b565b610bdd565b34801561033057600080fd5b506101e361033f36600461176b565b610c14565b34801561035057600080fd5b5061024761035f366004611520565b610c64565b34801561037057600080fd5b5061018b61037f36600461167e565b610ca8565b34801561039057600080fd5b506101b6610f35565b3480156103a557600080fd5b506102036103b436600461161b565b610f44565b6102036103c73660046115ae565b610fb3565b3480156103d857600080fd5b506101b66103e736600461176b565b6112c3565b3480156103f857600080fd5b506101e3611365565b34801561040d57600080fd5b506101b6611374565b34801561042257600080fd5b5061018b610431366004611541565b611381565b34801561044257600080fd5b506102476113af565b60006001600160e01b03198216630a85bd0160e11b8114906301ffc9a760e01b8114906380ac58cd60e01b811490635b5e139f60e01b81149063780e9d6360e01b1484806104965750835b8061049e5750825b806104a65750815b806104ae5750805b955050505050505b919050565b6060600180546104ca90611acb565b80601f01602080910402602001604051908101604052809291908181526020018280546104f690611acb565b80156105435780601f1061051857610100808354040283529160200191610543565b820191906000526020600020905b81548152906001019060200180831161052657829003601f168201915b5050505050905090565b6000908152600c60205260409020546001600160a01b031690565b6000818152600a60205260409020546001600160a01b031633146105a75760405162461bcd60e51b815260040161059e90611a67565b60405180910390fd5b6000818152600c602052604080822080546001600160a01b0319166001600160a01b038616908117909155905183923391600080516020611b718339815191529190a45050565b600354604051630a85bd0160e11b81526000916001600160a01b031690819063150b7a0290610629908a908a908a908a908a906004016118ad565b602060405180830381600087803b15801561064357600080fd5b505af1158015610657573d6000803e3d6000fd5b505050506040513d601f19601f8201168201806040525081019061067b91906116f2565b979650505050505050565b60045490565b6000546001600160a01b031633146106b65760405162461bcd60e51b815260040161059e906119f7565b7f4460005c4928761c85b469fc4cf57c38f2dcfdbb7783fe61282bfbf16fcc5c7960018585600286866040516106f196959493929190611947565b60405180910390a1610705600185856113b5565b50610712600283836113b5565b5050505050565b60045481565b6000818152600a60205260409020548390839083906001600160a01b0316158015906107af57506000818152600a60205260409020546001600160a01b031632148061078157506000818152600c60205260409020546001600160a01b031632145b806107af57506001600160a01b0383166000908152600d6020908152604080832032845290915290205460ff165b80156107d457506000818152600a60205260409020546001600160a01b038481169116145b80156107e857506001600160a01b03821615155b6108045760405162461bcd60e51b815260040161059e90611a4b565b6000818152600a6020908152604080832080546001600160a01b0319166001600160a01b0387811691909117909155861683526006909152812080549161084a83611ab4565b90915550506001600160a01b038216600090815260066020526040812080549161087383611b06565b90915550506001600160a01b03808416600081815260086020908152604080832086845282528083205494871680845260098352818420549484526007808452828520878652845282852085905590845290915281208491836108d581611b06565b945081526020019081526020016000208190555082846001600160a01b0316866001600160a01b0316600080516020611b5183398151915260405160405180910390a460405183906000903390600080516020611b71833981519152908390a485876001600160a01b0316896001600160a01b0316600080516020611b5183398151915260405160405180910390a460405186906000903390600080516020611b71833981519152908390a45050505050505050565b6002805461099890611acb565b80601f01602080910402602001604051908101604052809291908181526020018280546109c490611acb565b8015610a115780601f106109e657610100808354040283529160200191610a11565b820191906000526020600020905b8154815290600101906020018083116109f457829003601f168201915b505050505081565b6001600160a01b038216600090815260066020526040812054821115610a515760405162461bcd60e51b815260040161059e906119bf565b506001600160a01b03919091166000908152600760209081526040808320938352929052205490565b604051635c46a7ef60e11b8152309063b88d4fde90610aa1908690869086906004016118e1565b600060405180830381600087803b158015610abb57600080fd5b505af1158015610acf573d6000803e3d6000fd5b50505050505050565b336000818152600860209081526040808320858452825280832054938352600782528083208484528252808320839055848352600a825280832080546001600160a01b03191690558051808301808352848252868552600b9093529083209051929392610b459290611439565b506000838152600c6020908152604080832080546001600160a01b031916905533835260069091528120805491610b7b83611ab4565b90915550506005546000848152600f60209081526040808320849055928252600e90529081208190556004805491610bb283611ab4565b909155505060405183906000903390600080516020611b51833981519152908390a450600192915050565b6000600554821115610c015760405162461bcd60e51b815260040161059e906119bf565b506000908152600e602052604090205490565b6000818152600a60205260408120546001600160a01b0316610c485760405162461bcd60e51b815260040161059e90611a83565b506000908152600a60205260409020546001600160a01b031690565b60006001600160a01b038216610c8c5760405162461bcd60e51b815260040161059e90611a13565b506001600160a01b031660009081526006602052604090205490565b60006001600160a01b038516610cd05760405162461bcd60e51b815260040161059e90611a2f565b6000546001600160a01b03163314610cfa5760405162461bcd60e51b815260040161059e906119a3565b6001600160a01b03851660009081526009602090815260408083205460079092528220909186919083610d2c81611b06565b90825260208083019390935260409182016000908120949094556001600160a01b038a16808552600884528285208a86528452828520829055600580548652600e85528386208b9055548a8652600f855283862055600a845282852080546001600160a01b0319169091179055600b909252909120909150610daf9085856113b5565b506001600160a01b0386166000908152600660205260408120805491610dd483611b06565b90915550506001600160a01b0386166000908152600960205260408120805491610dfd83611b06565b909155505060048054906000610e1283611b06565b909155505060058054906000610e2783611b06565b909155505060405160009086906001600160a01b038916908390600080516020611b51833981519152908290a450853b8015610f2857600380546001600160a01b0319166001600160a01b038916179055604051630a85bd0160e11b8152600090309063150b7a0290610ea290849081908c906004016118e1565b602060405180830381600087803b158015610ebc57600080fd5b505af1158015610ed0573d6000803e3d6000fd5b505050506040513d601f19601f82011682018060405250810190610ef491906116f2565b90506001600160e01b03198116630a85bd0160e11b14610f265760405162461bcd60e51b815260040161059e906119db565b505b5060019695505050505050565b6060600280546104ca90611acb565b336000818152600d602090815260408083206001600160a01b038716808552925291829020805460ff191685151517905590519091907f17307eab39ab6107e8899845ad3d59bd9653f200f220920489ca2b5937696c3190610fa7908590611914565b60405180910390a35050565b6000838152600a60205260409020548590859085906001600160a01b03161580159061104357506000818152600a60205260409020546001600160a01b031632148061101557506000818152600c60205260409020546001600160a01b031632145b8061104357506001600160a01b0383166000908152600d6020908152604080832032845290915290205460ff165b801561106857506000818152600a60205260409020546001600160a01b038481169116145b801561107c57506001600160a01b03821615155b6110985760405162461bcd60e51b815260040161059e90611a4b565b6000818152600a6020908152604080832080546001600160a01b0319166001600160a01b038781169190911790915586168352600690915281208054916110de83611ab4565b90915550506001600160a01b038216600090815260066020526040812080549161110783611b06565b90915550506001600160a01b038084166000818152600860209081526040808320868452825280832054948716808452600983528184205494845260078084528285208786528452828520859055908452909152812084918361116981611b06565b945081526020019081526020016000208190555082846001600160a01b0316866001600160a01b0316600080516020611b5183398151915260405160405180910390a460405183906000903390600080516020611b71833981519152908390a4883b3381156112b5578a600360006101000a8154816001600160a01b0302191690836001600160a01b031602179055506000306001600160a01b031663150b7a02838f8e8e8e6040518663ffffffff1660e01b815260040161122f9594939291906118ad565b602060405180830381600087803b15801561124957600080fd5b505af115801561125d573d6000803e3d6000fd5b505050506040513d601f19601f8201168201806040525081019061128191906116f2565b90506001600160e01b03198116630a85bd0160e11b146112b35760405162461bcd60e51b815260040161059e906119db565b505b505050505050505050505050565b6000818152600b602052604090208054606091906112e090611acb565b80601f016020809104026020016040519081016040528092919081815260200182805461130c90611acb565b80156113595780601f1061132e57610100808354040283529160200191611359565b820191906000526020600020905b81548152906001019060200180831161133c57829003601f168201915b50505050509050919050565b6000546001600160a01b031681565b6001805461099890611acb565b6001600160a01b039182166000908152600d6020908152604080832093909416825291909152205460ff1690565b60055481565b8280546113c190611acb565b90600052602060002090601f0160209004810192826113e35760008555611429565b82601f106113fc5782800160ff19823516178555611429565b82800160010185558215611429579182015b8281111561142957823582559160200191906001019061140e565b506114359291506114ad565b5090565b82805461144590611acb565b90600052602060002090601f0160209004810192826114675760008555611429565b82601f1061148057805160ff1916838001178555611429565b82800160010185558215611429579182015b82811115611429578251825591602001919060010190611492565b5b8082111561143557600081556001016114ae565b80356001600160a01b03811681146104b657600080fd5b60008083601f8401126114ea578182fd5b50813567ffffffffffffffff811115611501578182fd5b60208301915083602082850101111561151957600080fd5b9250929050565b600060208284031215611531578081fd5b61153a826114c2565b9392505050565b60008060408385031215611553578081fd5b61155c836114c2565b915061156a602084016114c2565b90509250929050565b600080600060608486031215611587578081fd5b611590846114c2565b925061159e602085016114c2565b9150604084013590509250925092565b6000806000806000608086880312156115c5578081fd5b6115ce866114c2565b94506115dc602087016114c2565b935060408601359250606086013567ffffffffffffffff8111156115fe578182fd5b61160a888289016114d9565b969995985093965092949392505050565b6000806040838503121561162d578182fd5b611636836114c2565b91506020830135801515811461164a578182fd5b809150509250929050565b60008060408385031215611667578182fd5b611670836114c2565b946020939093013593505050565b60008060008060608587031215611693578384fd5b61169c856114c2565b935060208501359250604085013567ffffffffffffffff8111156116be578283fd5b6116ca878288016114d9565b95989497509550505050565b6000602082840312156116e7578081fd5b813561153a81611b37565b600060208284031215611703578081fd5b815161153a81611b37565b60008060008060408587031215611723578384fd5b843567ffffffffffffffff8082111561173a578586fd5b611746888389016114d9565b9096509450602087013591508082111561175e578384fd5b506116ca878288016114d9565b60006020828403121561177c578081fd5b5035919050565b60008284528282602086013780602084860101526020601f19601f85011685010190509392505050565b60008151808452815b818110156117d2576020818501810151868301820152016117b6565b818111156117e35782602083870101525b50601f01601f19169290920160200192915050565b80546000906002810460018083168061181257607f831692505b602080841082141561183257634e487b7160e01b86526022600452602486fd5b61183c8489611a9f565b82801561185057600181146118615761188c565b60ff1987168252828201975061188c565b61186a89611aa8565b60005b878110156118865781548482015290860190840161186d565b83019850505b5050505050505092915050565b6001600160a01b0391909116815260200190565b6001600160a01b038681168252851660208201526040810184905260806060820181905260009061067b9083018486611783565b6001600160a01b039384168152919092166020820152604081019190915260806060820181905260009082015260a00190565b901515815260200190565b6001600160e01b031991909116815260200190565b60006020825261153a60208301846117ad565b60006080825261195a60808301896117f8565b828103602084015261196d81888a611783565b9050828103604084015261198181876117f8565b90508281036060840152611996818587611783565b9998505050505050505050565b602080825260029082015261303760f01b604082015260600190565b602080825260029082015261181b60f11b604082015260600190565b6020808252600290820152610c0d60f21b604082015260600190565b602080825260029082015261060760f31b604082015260600190565b602080825260029082015261303160f01b604082015260600190565b602080825260029082015261303960f01b604082015260600190565b602080825260029082015261303360f01b604082015260600190565b602080825260029082015261303560f01b604082015260600190565b602080825260029082015261181960f11b604082015260600190565b90815260200190565b60009081526020902090565b600081611ac357611ac3611b21565b506000190190565b600281046001821680611adf57607f821691505b60208210811415611b0057634e487b7160e01b600052602260045260246000fd5b50919050565b6000600019821415611b1a57611b1a611b21565b5060010190565b634e487b7160e01b600052601160045260246000fd5b6001600160e01b031981168114611b4d57600080fd5b5056feddf252ad1be2c89b69c2b068fc378daa952ba7f163c4a11628f55a4df523b3ef8c5be1e5ebec7d5bd14f71427d1e84f3dd0314c0f7b2291e5b200ac8c7c3b925a2646970667358221220039a842f1c98d22336d7e93c1be196009fa6ec2a41e06aedac1c0b487b2702e464736f6c63430008000033",
  "immutableReferences": {},
  "source": "// SPDX-License-Identifier: MIT\r\n\r\npragma solidity ^0.8.0;\r\n\r\n// Interfaces\r\nimport \"../interface/IERC721TokenReceiver.sol\";\r\nimport \"../interface/IERC165.sol\";\r\nimport \"../interface/IERC721.sol\";\r\nimport \"../interface/IERC721Metadata.sol\";\r\nimport \"../interface/IERC721Enumerable.sol\";\r\n\r\n// Contract\r\ncontract ERC721 is IERC165, IERC721, IERC721TokenReceiver, IERC721Metadata, ERC721Enumerable {\r\n    //State variables\r\n    address public collectionOwner;\r\n    bytes public collectionName;\r\n    bytes public collectionSymbol;\r\n    address private recipientContractAddress;\r\n    uint public totalSupplyCounter;\r\n    uint public lastNftIndexOfCollection;\r\n\r\n    //Events\r\n    event CollectionCreate(address ownerOfCollection, bytes nameOfCollection, bytes symbolOfCollection);\r\n    event CollectionRename(bytes previousName, bytes currentName, bytes previousSymbol, bytes currentSymbol);\r\n\r\n    //Mappings\r\n    mapping(address => uint256) private nftCountOfOwner;\r\n    mapping(address => mapping(uint => uint256)) private nftListOfOwner;\r\n    mapping(address => mapping(uint256 => uint)) private nftIndexOfOwner;\r\n    mapping(address => uint) private lastNftIndexOfOwner;\r\n    mapping(uint256 => address) private nftOwner;\r\n    mapping(uint256 => bytes) private uriOf;\r\n    mapping(uint256 => address) private approvedOf;\r\n    mapping(address => mapping(address => bool)) private approvedForAllNFTsOf;\r\n    mapping(uint => uint256) private nftFromCollection;\r\n    mapping(uint256 => uint) private nftIndexInCollection;\r\n\r\n    //Modifiers\r\n    modifier justTransfer(address _from, address _to, uint256 _tokenId) {\r\n        require( nftOwner[_tokenId] != address(0x0) && (nftOwner[_tokenId] == tx.origin || approvedOf[_tokenId] == tx.origin || approvedForAllNFTsOf[_from][tx.origin]) && nftOwner[_tokenId] == _from && _to != address(0x0), \"03\");\r\n        // 03: At least one of input data is not valid!\r\n        // Transfer NFT:\r\n        nftOwner[_tokenId] = _to;\r\n        nftCountOfOwner[_from] --;\r\n        nftCountOfOwner[_to] ++;\r\n        uint nftIndex = nftIndexOfOwner[_from][_tokenId];\r\n        uint lastNftIndex = lastNftIndexOfOwner[_to];\r\n        nftListOfOwner[_from][nftIndex] = 0;\r\n        nftListOfOwner[_to][lastNftIndex ++] = _tokenId;\r\n        emit Transfer(_from, _to, _tokenId);\r\n        emit Approval(msg.sender, address(0x0), _tokenId);\r\n        _;\r\n    }\r\n\r\n    //Functions\r\n    constructor(bytes memory nameOfCollection, bytes memory symbolOfCollection) {\r\n        collectionOwner = msg.sender;\r\n        collectionName = nameOfCollection;\r\n        collectionSymbol = symbolOfCollection;\r\n        emit CollectionCreate(collectionOwner, collectionName, collectionSymbol);\r\n    }\r\n\r\n    function supportsInterface(bytes4 interfaceID) external override pure returns (bool){\r\n        bool ierc721TokenReceiverId = (interfaceID == this.onERC721Received.selector);\r\n        bool ierc165Id = (interfaceID == this.supportsInterface.selector);\r\n        bool ierc721Id = (interfaceID == bytes4(keccak256(\"balanceOf(address)\")) ^\r\n                            bytes4(keccak256(\"ownerOf(uint256)\")) ^\r\n                            bytes4(keccak256(\"safeTransferFrom(address,address,uint256,bytes)\")) ^\r\n                            bytes4(keccak256(\"safeTransferFrom(address,address,uint256)\")) ^\r\n                            bytes4(keccak256(\"transferFrom(address,address,uint256)\")) ^\r\n                            bytes4(keccak256(\"approve(address,uint256)\")) ^\r\n                            bytes4(keccak256(\"setApprovalForAll(address,bool)\")) ^\r\n                            bytes4(keccak256(\"getApproved(uint256)\")) ^\r\n                            bytes4(keccak256(\"isApprovedForAll(address,address)\")));\r\n        bool ierc721MetadataId = (interfaceID == this.name.selector ^ this.symbol.selector ^ this.tokenURI.selector);\r\n        bool ierc721EnumerableId = (interfaceID == this.totalSupply.selector ^ this.tokenByIndex.selector ^ this.tokenOfOwnerByIndex.selector);\r\n        return (ierc721TokenReceiverId || ierc165Id || ierc721Id || ierc721MetadataId || ierc721EnumerableId);\r\n        \r\n    }\r\n\r\n    function name() external override view returns (string memory){\r\n        return string(collectionName);\r\n    }\r\n\r\n    function symbol() external override view returns (string memory){\r\n        return string(collectionSymbol);\r\n    }\r\n\r\n    function mint(address ownerAddress, uint256 tokenId, bytes calldata metadataURI) external returns (bool){\r\n        require(ownerAddress != address(0x0), \"09\");\r\n        // 09: Owner address is zero!\r\n        require(collectionOwner == msg.sender, \"07\");\r\n        // 07: Only the owner of collection can do this job!\r\n        uint lastNftIndex = lastNftIndexOfOwner[ownerAddress];\r\n        nftListOfOwner[ownerAddress][lastNftIndex ++] = tokenId;\r\n        nftIndexOfOwner[ownerAddress][tokenId] = lastNftIndex;\r\n        nftFromCollection[lastNftIndexOfCollection] = tokenId;\r\n        nftIndexInCollection[tokenId] = lastNftIndexOfCollection;\r\n        nftOwner[tokenId] = ownerAddress;\r\n        uriOf[tokenId] = metadataURI;\r\n        nftCountOfOwner[ownerAddress] ++;\r\n        lastNftIndexOfOwner[ownerAddress] ++;\r\n        totalSupplyCounter ++;\r\n        lastNftIndexOfCollection ++;\r\n        uint codeSize;\r\n        emit Transfer(address(0x0), ownerAddress, tokenId);\r\n        assembly{\r\n            codeSize := extcodesize(ownerAddress)\r\n        }\r\n        if(codeSize > 0){\r\n            recipientContractAddress = ownerAddress;\r\n            bytes4 functionSelector = this.onERC721Received(address(0x0), address(0x0), tokenId, \"\");\r\n            require(functionSelector == bytes4(keccak256(\"onERC721Received(address,address,uint256,bytes)\")), \"04\");\r\n            // 04: The recipient contract couldn't handle the NFT receipt!\r\n        }\r\n        return true;\r\n    }\r\n\r\n    function burn(uint256 tokenId) external returns (bool){\r\n        uint nftIndex = nftIndexOfOwner[msg.sender][tokenId];\r\n        nftListOfOwner[msg.sender][nftIndex] = 0;\r\n        nftOwner[tokenId] = address(0x0);\r\n        uriOf[tokenId] = \"\";\r\n        approvedOf[tokenId] = address(0x0);\r\n        nftCountOfOwner[msg.sender] --;\r\n        nftIndexInCollection[tokenId] = lastNftIndexOfCollection;\r\n        nftFromCollection[lastNftIndexOfCollection] = 0;\r\n        totalSupplyCounter --;\r\n        emit Transfer(msg.sender, address(0x0), tokenId);\r\n        return true;\r\n    }\r\n\r\n    function totalSupply() external override view returns (uint256){\r\n        return totalSupplyCounter;\r\n    }\r\n\r\n    function tokenURI(uint256 _tokenId) external override view returns (string memory){\r\n        return string(uriOf[_tokenId]);\r\n    }\r\n\r\n    function tokenByIndex(uint256 _index) external override view returns (uint256){\r\n        require(_index <= lastNftIndexOfCollection, \"06\");\r\n        // 06: The NFT index is invalid!\r\n        return nftFromCollection[_index];\r\n    }\r\n\r\n    function balanceOf(address _owner) external override view returns (uint256){\r\n        require(_owner != address(0x0), \"01\");\r\n        // 01: Zero address is not valid!\r\n        return nftCountOfOwner[_owner];\r\n    }\r\n\r\n    function tokenOfOwnerByIndex(address _owner, uint256 _index) external override view returns (uint256){\r\n        require(_index <= nftCountOfOwner[_owner], \"06\");\r\n        return nftListOfOwner[_owner][_index];\r\n    }\r\n\r\n    function ownerOf(uint256 _tokenId) external override view returns (address){\r\n        require(nftOwner[_tokenId] != address(0x0), \"02\");\r\n        // 02: The token is invalid!\r\n        return (nftOwner[_tokenId]);\r\n    }\r\n\r\n    function collectionRename(bytes calldata newName, bytes calldata newSymbol) external {\r\n        require(collectionOwner == msg.sender, \"08\");\r\n        // 08: Only collection owner can rename it!\r\n        emit CollectionRename(collectionName, newName, collectionSymbol, newSymbol);\r\n        collectionName = newName;\r\n        collectionSymbol = newSymbol;\r\n    }\r\n\r\n    function safeTransferFrom(address _from, address _to, uint256 _tokenId, bytes calldata data) external override justTransfer(_from, _to, _tokenId) payable{    \r\n        // Ensure if the recipient is a contract it handles the NFT receipt:\r\n        uint codeSize;\r\n        address operator = msg.sender;\r\n        assembly{\r\n            codeSize := extcodesize(_to)\r\n        }\r\n        if(codeSize > 0){\r\n            recipientContractAddress = _to;\r\n            bytes4 functionSelector = this.onERC721Received(operator, _from, _tokenId, data);\r\n            require(functionSelector == bytes4(keccak256(\"onERC721Received(address,address,uint256,bytes)\")), \"04\");\r\n            // 04: The recipient contract couldn't handle the NFT receipt!\r\n        }\r\n    }\r\n\r\n    function safeTransferFrom(address _from, address _to, uint256 _tokenId) external override payable{\r\n        this.safeTransferFrom(_from, _to, _tokenId, \"\");\r\n    }\r\n\r\n    function transferFrom(address _from, address _to, uint256 _tokenId) external override justTransfer(_from, _to, _tokenId) payable{\r\n        emit Transfer(_from, _to, _tokenId);\r\n        emit Approval(msg.sender, address(0x0), _tokenId);\r\n    }\r\n\r\n    function approve(address _approved, uint256 _tokenId) external override payable{\r\n        require(nftOwner[_tokenId] == msg.sender, \"05\");\r\n        // 05: The account is not authorized!;\r\n        approvedOf[_tokenId] = _approved;\r\n        emit Approval(msg.sender, _approved, _tokenId);\r\n    }\r\n\r\n    function setApprovalForAll(address _operator, bool _approved) external override{\r\n        approvedForAllNFTsOf[msg.sender][_operator] = _approved;\r\n        emit ApprovalForAll(msg.sender, _operator, _approved);\r\n    }\r\n\r\n    function getApproved(uint256 _tokenId) external override view returns (address){\r\n        return approvedOf[_tokenId];\r\n    }\r\n\r\n    function isApprovedForAll(address _owner, address _operator) external override view returns (bool){\r\n        return approvedForAllNFTsOf[_owner][_operator];\r\n    }\r\n\r\n    function onERC721Received(address _operator, address _from, uint256 _tokenId, bytes calldata _data) external override returns(bytes4){\r\n        IERC721TokenReceiver recipientContract = IERC721TokenReceiver(recipientContractAddress);\r\n        return recipientContract.onERC721Received(_operator, _from, _tokenId, _data);\r\n    }\r\n}",
  "sourcePath": "E:\\smartContract\\contracts\\erc721.sol",
  "compiler": {
    "name": "solc",
    "version": "0.8.0+commit.c7dfd78e.Emscripten.clang"
  },
  "schemaVersion": "3.4.16",
  "updatedAt": "2024-06-25T07:33:33.657Z",
  "networkType": "ethereum",
  "devdoc": {
    "kind": "dev",
    "methods": {},
    "version": 1
  },
  "userdoc": {
    "kind": "user",
    "methods": {},
    "version": 1
  }
}