{
  "contractName": "ERC721",
  "abi": [
    {
      "inputs": [],
      "payable": false,
      "stateMutability": "nonpayable",
      "type": "constructor"
    },
    {
      "anonymous": false,
      "inputs": [
        {
          "indexed": true,
          "internalType": "address",
          "name": "_owner",
          "type": "address"
        },
        {
          "indexed": true,
          "internalType": "address",
          "name": "_approved",
          "type": "address"
        },
        {
          "indexed": true,
          "internalType": "uint256",
          "name": "_tokenId",
          "type": "uint256"
        }
      ],
      "name": "Approval",
      "type": "event"
    },
    {
      "anonymous": false,
      "inputs": [
        {
          "indexed": true,
          "internalType": "address",
          "name": "_owner",
          "type": "address"
        },
        {
          "indexed": true,
          "internalType": "address",
          "name": "_operator",
          "type": "address"
        },
        {
          "indexed": false,
          "internalType": "bool",
          "name": "_approved",
          "type": "bool"
        }
      ],
      "name": "ApprovalForAll",
      "type": "event"
    },
    {
      "anonymous": false,
      "inputs": [
        {
          "indexed": true,
          "internalType": "address",
          "name": "_from",
          "type": "address"
        },
        {
          "indexed": true,
          "internalType": "address",
          "name": "_to",
          "type": "address"
        },
        {
          "indexed": true,
          "internalType": "uint256",
          "name": "_tokenId",
          "type": "uint256"
        }
      ],
      "name": "Transfer",
      "type": "event"
    },
    {
      "constant": true,
      "inputs": [
        {
          "internalType": "bytes4",
          "name": "interfaceID",
          "type": "bytes4"
        }
      ],
      "name": "supportsInterface",
      "outputs": [
        {
          "internalType": "bool",
          "name": "",
          "type": "bool"
        }
      ],
      "payable": false,
      "stateMutability": "view",
      "type": "function"
    },
    {
      "constant": true,
      "inputs": [
        {
          "internalType": "address",
          "name": "_owner",
          "type": "address"
        }
      ],
      "name": "balanceOf",
      "outputs": [
        {
          "internalType": "uint256",
          "name": "",
          "type": "uint256"
        }
      ],
      "payable": false,
      "stateMutability": "view",
      "type": "function"
    },
    {
      "constant": true,
      "inputs": [
        {
          "internalType": "uint256",
          "name": "_tokenId",
          "type": "uint256"
        }
      ],
      "name": "ownerOf",
      "outputs": [
        {
          "internalType": "address",
          "name": "",
          "type": "address"
        }
      ],
      "payable": false,
      "stateMutability": "view",
      "type": "function"
    },
    {
      "constant": false,
      "inputs": [
        {
          "internalType": "address",
          "name": "_from",
          "type": "address"
        },
        {
          "internalType": "address",
          "name": "_to",
          "type": "address"
        },
        {
          "internalType": "uint256",
          "name": "_tokenId",
          "type": "uint256"
        }
      ],
      "name": "safeTransferFrom",
      "outputs": [],
      "payable": true,
      "stateMutability": "payable",
      "type": "function"
    },
    {
      "constant": false,
      "inputs": [
        {
          "internalType": "address",
          "name": "_from",
          "type": "address"
        },
        {
          "internalType": "address",
          "name": "_to",
          "type": "address"
        },
        {
          "internalType": "uint256",
          "name": "_tokenId",
          "type": "uint256"
        },
        {
          "internalType": "bytes",
          "name": "data",
          "type": "bytes"
        }
      ],
      "name": "safeTransferFrom",
      "outputs": [],
      "payable": true,
      "stateMutability": "payable",
      "type": "function"
    },
    {
      "constant": false,
      "inputs": [
        {
          "internalType": "address",
          "name": "_from",
          "type": "address"
        },
        {
          "internalType": "address",
          "name": "_to",
          "type": "address"
        },
        {
          "internalType": "uint256",
          "name": "_tokenId",
          "type": "uint256"
        }
      ],
      "name": "transferFrom",
      "outputs": [],
      "payable": true,
      "stateMutability": "payable",
      "type": "function"
    },
    {
      "constant": false,
      "inputs": [
        {
          "internalType": "address",
          "name": "_approved",
          "type": "address"
        },
        {
          "internalType": "uint256",
          "name": "_tokenId",
          "type": "uint256"
        }
      ],
      "name": "approve",
      "outputs": [],
      "payable": true,
      "stateMutability": "payable",
      "type": "function"
    },
    {
      "constant": false,
      "inputs": [
        {
          "internalType": "address",
          "name": "_operator",
          "type": "address"
        },
        {
          "internalType": "bool",
          "name": "_approved",
          "type": "bool"
        }
      ],
      "name": "setApprovalForAll",
      "outputs": [],
      "payable": false,
      "stateMutability": "nonpayable",
      "type": "function"
    },
    {
      "constant": true,
      "inputs": [
        {
          "internalType": "uint256",
          "name": "_tokenId",
          "type": "uint256"
        }
      ],
      "name": "getApproved",
      "outputs": [
        {
          "internalType": "address",
          "name": "",
          "type": "address"
        }
      ],
      "payable": false,
      "stateMutability": "view",
      "type": "function"
    },
    {
      "constant": true,
      "inputs": [
        {
          "internalType": "address",
          "name": "_owner",
          "type": "address"
        },
        {
          "internalType": "address",
          "name": "_operator",
          "type": "address"
        }
      ],
      "name": "isApprovedForAll",
      "outputs": [
        {
          "internalType": "bool",
          "name": "",
          "type": "bool"
        }
      ],
      "payable": false,
      "stateMutability": "view",
      "type": "function"
    },
    {
      "constant": false,
      "inputs": [
        {
          "internalType": "address",
          "name": "_operator",
          "type": "address"
        },
        {
          "internalType": "address",
          "name": "_from",
          "type": "address"
        },
        {
          "internalType": "uint256",
          "name": "_tokenId",
          "type": "uint256"
        },
        {
          "internalType": "bytes",
          "name": "_data",
          "type": "bytes"
        }
      ],
      "name": "onERC721Received",
      "outputs": [
        {
          "internalType": "bytes4",
          "name": "",
          "type": "bytes4"
        }
      ],
      "payable": false,
      "stateMutability": "nonpayable",
      "type": "function"
    }
  ],
  "bytecode": "0x608060405234801561001057600080fd5b5060006100246001600160e01b036100bd16565b600160208190527f81c121499a542e3e51d9d5c7926654363230ee0bf792147364bc56318906bbf6805460ff1990811683179091557fb45820386466a8e01597d6e1efaf8f11ba4467972de5ca6c1f8aa3544ac2888e80548216831790557fffffffff00000000000000000000000000000000000000000000000000000000909216600090815260409020805490921617905550610225565b6000806040518080610f8260219139604080519182900360210182207f676574417070726f7665642875696e7432353629000000000000000000000000835281519283900360140183207f736574417070726f76616c466f72416c6c28616464726573732c626f6f6c29008452825193849003601f0184207f617070726f766528616464726573732c75696e743235362900000000000000008552925193849003601801842091945092806025610f0582396040519081900360250181209150806029610f2a8239604051908190036029018120915080602f610f538239602f019050604051809103902060405180807f6f776e65724f662875696e7432353629000000000000000000000000000000008152506010019050604051809103902060405180807f62616c616e63654f66286164647265737329000000000000000000000000000081525060120190506040518091039020181818181818181890508091505090565b610cd1806102346000396000f3fe60806040526004361061009c5760003560e01c806342842e0e1161006457806342842e0e1461024d5780636352211e1461028357806370a08231146102ad578063a22cb465146102f2578063b88d4fde1461032d578063e985e9c5146103bd5761009c565b806301ffc9a7146100a1578063081812fc146100e9578063095ea7b31461012f578063150b7a021461015d57806323b872dd14610217575b600080fd5b3480156100ad57600080fd5b506100d5600480360360208110156100c457600080fd5b50356001600160e01b0319166103f8565b604080519115158252519081900360200190f35b3480156100f557600080fd5b506101136004803603602081101561010c57600080fd5b503561041b565b604080516001600160a01b039092168252519081900360200190f35b61015b6004803603604081101561014557600080fd5b506001600160a01b038135169060200135610436565b005b34801561016957600080fd5b506101fa6004803603608081101561018057600080fd5b6001600160a01b038235811692602081013590911691604082013591908101906080810160608201356401000000008111156101bb57600080fd5b8201836020820111156101cd57600080fd5b803590602001918460018302840111640100000000831117156101ef57600080fd5b5090925090506104df565b604080516001600160e01b03199092168252519081900360200190f35b61015b6004803603606081101561022d57600080fd5b506001600160a01b038135811691602081013590911690604001356105b4565b61015b6004803603606081101561026357600080fd5b506001600160a01b03813581169160208101359091169060400135610768565b34801561028f57600080fd5b50610113600480360360208110156102a657600080fd5b50356107e7565b3480156102b957600080fd5b506102e0600480360360208110156102d057600080fd5b50356001600160a01b0316610835565b60408051918252519081900360200190f35b3480156102fe57600080fd5b5061015b6004803603604081101561031557600080fd5b506001600160a01b0381351690602001351515610893565b61015b6004803603608081101561034357600080fd5b6001600160a01b0382358116926020810135909116916040820135919081019060808101606082013564010000000081111561037e57600080fd5b82018360208201111561039057600080fd5b803590602001918460018302840111640100000000831117156103b257600080fd5b509092509050610901565b3480156103c957600080fd5b506100d5600480360360408110156103e057600080fd5b506001600160a01b0381358116916020013516610c3f565b6001600160e01b0319811660009081526001602052604090205460ff165b919050565b6000908152600460205260409020546001600160a01b031690565b6000818152600360205260409020546001600160a01b03163314610486576040805162461bcd60e51b8152602060048201526002602482015261303560f01b604482015290519081900360640190fd5b60008181526004602052604080822080546001600160a01b0319166001600160a01b0386169081179091559051839233917f8c5be1e5ebec7d5bd14f71427d1e84f3dd0314c0f7b2291e5b200ac8c7c3b9259190a45050565b60008054604051630a85bd0160e11b81526001600160a01b0388811660048301908152888216602484015260448301889052608060648401908152608484018790529190931692839263150b7a02928b928b928b928b928b9290919060a401848480828437600081840152601f19601f8201169050808301925050509650505050505050602060405180830381600087803b15801561057d57600080fd5b505af1158015610591573d6000803e3d6000fd5b505050506040513d60208110156105a757600080fd5b5051979650505050505050565b6000818152600360205260409020548390839083906001600160a01b03161580159061064457506000818152600360205260409020546001600160a01b031633148061061657506000818152600460205260409020546001600160a01b031633145b8061064457506001600160a01b038316600090815260056020908152604080832033845290915290205460ff165b801561066957506000818152600360205260409020546001600160a01b038481169116145b801561067d57506001600160a01b03821615155b6106b3576040805162461bcd60e51b8152602060048201526002602482015261303360f01b604482015290519081900360640190fd5b600081815260036020908152604080832080546001600160a01b0319166001600160a01b0387811691821790925587821685526002909352818420805460001901905591835280832080546001019055518692888316928a16917fddf252ad1be2c89b69c2b068fc378daa952ba7f163c4a11628f55a4df523b3ef9190a4604051849060009033907f8c5be1e5ebec7d5bd14f71427d1e84f3dd0314c0f7b2291e5b200ac8c7c3b925908390a4505050505050565b60408051635c46a7ef60e11b81526001600160a01b0385811660048301528416602482015260448101839052608060648201526000608482018190529151309263b88d4fde9260c4808201939182900301818387803b1580156107ca57600080fd5b505af11580156107de573d6000803e3d6000fd5b50505050505050565b6000818152600360205260408120546001600160a01b0316610416576040805162461bcd60e51b8152602060048201526002602482015261181960f11b604482015290519081900360640190fd5b60006001600160a01b038216610877576040805162461bcd60e51b8152602060048201526002602482015261303160f01b604482015290519081900360640190fd5b506001600160a01b031660009081526002602052604090205490565b3360008181526005602090815260408083206001600160a01b03871680855290835292819020805460ff1916861515908117909155815190815290519293927f17307eab39ab6107e8899845ad3d59bd9653f200f220920489ca2b5937696c31929181900390910190a35050565b6000838152600360205260409020548590859085906001600160a01b03161580159061099157506000818152600360205260409020546001600160a01b031633148061096357506000818152600460205260409020546001600160a01b031633145b8061099157506001600160a01b038316600090815260056020908152604080832033845290915290205460ff165b80156109b657506000818152600360205260409020546001600160a01b038481169116145b80156109ca57506001600160a01b03821615155b610a00576040805162461bcd60e51b8152602060048201526002602482015261303360f01b604482015290519081900360640190fd5b600081815260036020908152604080832080546001600160a01b0319166001600160a01b03878116918217909255908716845260029092528083208054600019019055908252902080546001019055863b338115610bc357886000806101000a8154816001600160a01b0302191690836001600160a01b031602179055506000306001600160a01b031663150b7a02838d8c8c8c6040518663ffffffff1660e01b815260040180866001600160a01b03166001600160a01b03168152602001856001600160a01b03166001600160a01b03168152602001848152602001806020018281038252848482818152602001925080828437600081840152601f19601f8201169050808301925050509650505050505050602060405180830381600087803b158015610b2e57600080fd5b505af1158015610b42573d6000803e3d6000fd5b505050506040513d6020811015610b5857600080fd5b505160405190915080602f610c6e8239602f01905060405180910390206001600160e01b031916816001600160e01b03191614610bc1576040805162461bcd60e51b81526020600482015260026024820152610c0d60f21b604482015290519081900360640190fd5b505b87896001600160a01b03168b6001600160a01b03167fddf252ad1be2c89b69c2b068fc378daa952ba7f163c4a11628f55a4df523b3ef60405160405180910390a4604051889060009033907f8c5be1e5ebec7d5bd14f71427d1e84f3dd0314c0f7b2291e5b200ac8c7c3b925908390a450505050505050505050565b6001600160a01b03918216600090815260056020908152604080832093909416825291909152205460ff169056fe6f6e455243373231526563656976656428616464726573732c616464726573732c75696e743235362c627974657329a265627a7a7231582006a6068760928cb90cfbec49580a337a12213b02e09aca636a7cae236d392e7f64736f6c634300050c00327472616e7366657246726f6d28616464726573732c616464726573732c75696e7432353629736166655472616e7366657246726f6d28616464726573732c616464726573732c75696e7432353629736166655472616e7366657246726f6d28616464726573732c616464726573732c75696e743235362c6279746573296973417070726f766564466f72416c6c28616464726573732c6164647265737329",
  "source": "// SPDX-License-Identifier: MIT\r\n\r\npragma solidity ^0.5.12;\r\n\r\n// Interfaces\r\ninterface IERC721TokenReceiver {\r\n    function onERC721Received(address _operator, address _from, uint256 _tokenId, bytes calldata _data) external returns(bytes4);\r\n}\r\n\r\ninterface IERC165 {\r\n    function supportsInterface(bytes4 interfaceID) external view returns (bool);\r\n}\r\n\r\ninterface IERC721 {\r\n    \r\n    event Transfer(address indexed _from, address indexed _to, uint256 indexed _tokenId);\r\n    event Approval(address indexed _owner, address indexed _approved, uint256 indexed _tokenId);\r\n    event ApprovalForAll(address indexed _owner, address indexed _operator, bool _approved);\r\n\r\n    function balanceOf(address _owner) external view returns (uint256);\r\n    function ownerOf(uint256 _tokenId) external view returns (address);\r\n    function safeTransferFrom(address _from, address _to, uint256 _tokenId, bytes calldata data) external payable;\r\n    function safeTransferFrom(address _from, address _to, uint256 _tokenId) external payable;\r\n    function transferFrom(address _from, address _to, uint256 _tokenId) external payable;\r\n    function approve(address _approved, uint256 _tokenId) external payable;\r\n    function setApprovalForAll(address _operator, bool _approved) external;\r\n    function getApproved(uint256 _tokenId) external view returns (address);\r\n    function isApprovedForAll(address _owner, address _operator) external view returns (bool);\r\n}\r\n\r\n// Contract\r\ncontract ERC721 is IERC165, IERC721, IERC721TokenReceiver {\r\n    address private recipientContractAddress;\r\n\r\n    mapping(bytes4 => bool) private supportedInterfaces;\r\n    mapping(address => uint256) private nftCount;\r\n    mapping(uint256 => address) private nftOwner;\r\n    mapping(uint256 => address) private approvedOf;\r\n    mapping(address => mapping(address => bool)) private approvedForAllNFTsOf;\r\n\r\n    modifier justTransfer(address _from, address _to, uint256 _tokenId) {\r\n        require(nftOwner[_tokenId] != address(0x0) && (nftOwner[_tokenId] == msg.sender || approvedOf[_tokenId] == msg.sender || approvedForAllNFTsOf[_from][msg.sender]) && nftOwner[_tokenId] == _from && _to != address(0x0), \"03\");\r\n        // 03: At least one of input data is not valid!\r\n        // Transfer NFT:\r\n        nftOwner[_tokenId] = _to;\r\n        nftCount[_from] --;\r\n        nftCount[_to] ++;\r\n        _;\r\n    }\r\n\r\n    constructor() public{\r\n        bytes4 IERC721Id = IERC721IdGenerator();\r\n        supportedInterfaces[this.onERC721Received.selector] = true;\r\n        supportedInterfaces[this.supportsInterface.selector] = true;\r\n        supportedInterfaces[IERC721Id] = true;\r\n    }\r\n\r\n    function supportsInterface(bytes4 interfaceID) external view returns (bool){\r\n        return supportedInterfaces[interfaceID];\r\n    }\r\n\r\n    function balanceOf(address _owner) external view returns (uint256){\r\n        require(_owner != address(0x0), \"01\");\r\n        // 01: Zero address is not valid!\r\n        return nftCount[_owner];\r\n    }\r\n\r\n    function ownerOf(uint256 _tokenId) external view returns (address){\r\n        require(nftOwner[_tokenId] != address(0x0), \"02\");\r\n        // 02: The token is invalid!\r\n    }\r\n\r\n    function safeTransferFrom(address _from, address _to, uint256 _tokenId, bytes calldata data) external justTransfer(_from, _to, _tokenId) payable{    \r\n        // Ensure if the recipient is a contract it handles the NFT receipt:\r\n        uint codeSize;\r\n        address operator = msg.sender;\r\n        assembly{\r\n            codeSize := extcodesize(_to)\r\n        }\r\n        if(codeSize > 0){\r\n            recipientContractAddress = _to;\r\n            bytes4 functionSelector = this.onERC721Received(operator, _from, _tokenId, data);\r\n            require(functionSelector == bytes4(keccak256(\"onERC721Received(address,address,uint256,bytes)\")), \"04\");\r\n            // 04: The recipient contract couldn't handle the NFT receipt!\r\n        }\r\n        emit Transfer(_from, _to, _tokenId);\r\n        emit Approval(msg.sender, address(0x0), _tokenId);\r\n    }\r\n\r\n    function safeTransferFrom(address _from, address _to, uint256 _tokenId) external payable{\r\n        this.safeTransferFrom(_from, _to, _tokenId, \"\");\r\n    }\r\n\r\n    function transferFrom(address _from, address _to, uint256 _tokenId) external justTransfer(_from, _to, _tokenId) payable{\r\n        emit Transfer(_from, _to, _tokenId);\r\n        emit Approval(msg.sender, address(0x0), _tokenId);\r\n    }\r\n\r\n    function approve(address _approved, uint256 _tokenId) external payable{\r\n        require(nftOwner[_tokenId] == msg.sender, \"05\");\r\n        // 05: The account is not authorized!;\r\n        approvedOf[_tokenId] = _approved;\r\n        emit Approval(msg.sender, _approved, _tokenId);\r\n    }\r\n\r\n    function setApprovalForAll(address _operator, bool _approved) external{\r\n        approvedForAllNFTsOf[msg.sender][_operator] = _approved;\r\n        emit ApprovalForAll(msg.sender, _operator, _approved);\r\n    }\r\n\r\n    function getApproved(uint256 _tokenId) external view returns (address){\r\n        return approvedOf[_tokenId];\r\n    }\r\n\r\n    function isApprovedForAll(address _owner, address _operator) external view returns (bool){\r\n        return approvedForAllNFTsOf[_owner][_operator];\r\n    }\r\n\r\n    function onERC721Received(address _operator, address _from, uint256 _tokenId, bytes calldata _data) external returns(bytes4){\r\n        IERC721TokenReceiver recipientContract = IERC721TokenReceiver(recipientContractAddress);\r\n        return recipientContract.onERC721Received(_operator, _from, _tokenId, _data);\r\n    }\r\n\r\n    function IERC721IdGenerator() private pure returns(bytes4){\r\n        bytes4 erc721Id = bytes4(keccak256(\"balanceOf(address)\")) ^\r\n                        bytes4(keccak256(\"ownerOf(uint256)\")) ^\r\n                        bytes4(keccak256(\"safeTransferFrom(address,address,uint256,bytes)\")) ^\r\n                        bytes4(keccak256(\"safeTransferFrom(address,address,uint256)\")) ^\r\n                        bytes4(keccak256(\"transferFrom(address,address,uint256)\")) ^\r\n                        bytes4(keccak256(\"approve(address,uint256)\")) ^\r\n                        bytes4(keccak256(\"setApprovalForAll(address,bool)\")) ^\r\n                        bytes4(keccak256(\"getApproved(uint256)\")) ^\r\n                        bytes4(keccak256(\"isApprovedForAll(address,address)\"));\r\n        return erc721Id;\r\n    }\r\n}",
  "sourcePath": "E:\\smartContract\\contracts\\erc721.sol",
  "compiler": {
    "name": "solc",
    "version": "0.5.12+commit.7709ece9.Emscripten.clang"
  },
  "schemaVersion": "3.4.16",
  "updatedAt": "2024-06-18T15:18:25.378Z",
  "networkType": "ethereum",
  "devdoc": {
    "methods": {}
  },
  "userdoc": {
    "methods": {}
  }
}