{
  "contractName": "ERC721",
  "abi": [
    {
      "inputs": [
        {
          "internalType": "bytes",
          "name": "nameOfCollection",
          "type": "bytes"
        },
        {
          "internalType": "bytes",
          "name": "symbolOfCollection",
          "type": "bytes"
        }
      ],
      "stateMutability": "nonpayable",
      "type": "constructor"
    },
    {
      "anonymous": false,
      "inputs": [
        {
          "indexed": true,
          "internalType": "address",
          "name": "_owner",
          "type": "address"
        },
        {
          "indexed": true,
          "internalType": "address",
          "name": "_approved",
          "type": "address"
        },
        {
          "indexed": true,
          "internalType": "uint256",
          "name": "_tokenId",
          "type": "uint256"
        }
      ],
      "name": "Approval",
      "type": "event"
    },
    {
      "anonymous": false,
      "inputs": [
        {
          "indexed": true,
          "internalType": "address",
          "name": "_owner",
          "type": "address"
        },
        {
          "indexed": true,
          "internalType": "address",
          "name": "_operator",
          "type": "address"
        },
        {
          "indexed": false,
          "internalType": "bool",
          "name": "_approved",
          "type": "bool"
        }
      ],
      "name": "ApprovalForAll",
      "type": "event"
    },
    {
      "anonymous": false,
      "inputs": [
        {
          "indexed": false,
          "internalType": "address",
          "name": "ownerOfCollection",
          "type": "address"
        },
        {
          "indexed": false,
          "internalType": "bytes",
          "name": "nameOfCollection",
          "type": "bytes"
        },
        {
          "indexed": false,
          "internalType": "bytes",
          "name": "symbolOfCollection",
          "type": "bytes"
        }
      ],
      "name": "CollectionCreate",
      "type": "event"
    },
    {
      "anonymous": false,
      "inputs": [
        {
          "indexed": false,
          "internalType": "bytes",
          "name": "previousName",
          "type": "bytes"
        },
        {
          "indexed": false,
          "internalType": "bytes",
          "name": "currentName",
          "type": "bytes"
        },
        {
          "indexed": false,
          "internalType": "bytes",
          "name": "previousSymbol",
          "type": "bytes"
        },
        {
          "indexed": false,
          "internalType": "bytes",
          "name": "currentSymbol",
          "type": "bytes"
        }
      ],
      "name": "CollectionRename",
      "type": "event"
    },
    {
      "anonymous": false,
      "inputs": [
        {
          "indexed": true,
          "internalType": "address",
          "name": "_from",
          "type": "address"
        },
        {
          "indexed": true,
          "internalType": "address",
          "name": "_to",
          "type": "address"
        },
        {
          "indexed": true,
          "internalType": "uint256",
          "name": "_tokenId",
          "type": "uint256"
        }
      ],
      "name": "Transfer",
      "type": "event"
    },
    {
      "inputs": [],
      "name": "collectionName",
      "outputs": [
        {
          "internalType": "bytes",
          "name": "",
          "type": "bytes"
        }
      ],
      "stateMutability": "view",
      "type": "function",
      "constant": true
    },
    {
      "inputs": [],
      "name": "collectionOwner",
      "outputs": [
        {
          "internalType": "address",
          "name": "",
          "type": "address"
        }
      ],
      "stateMutability": "view",
      "type": "function",
      "constant": true
    },
    {
      "inputs": [],
      "name": "collectionSymbol",
      "outputs": [
        {
          "internalType": "bytes",
          "name": "",
          "type": "bytes"
        }
      ],
      "stateMutability": "view",
      "type": "function",
      "constant": true
    },
    {
      "inputs": [],
      "name": "lastNftIndexOfCollection",
      "outputs": [
        {
          "internalType": "uint256",
          "name": "",
          "type": "uint256"
        }
      ],
      "stateMutability": "view",
      "type": "function",
      "constant": true
    },
    {
      "inputs": [],
      "name": "totalSupplyCounter",
      "outputs": [
        {
          "internalType": "uint256",
          "name": "",
          "type": "uint256"
        }
      ],
      "stateMutability": "view",
      "type": "function",
      "constant": true
    },
    {
      "inputs": [
        {
          "internalType": "bytes4",
          "name": "interfaceID",
          "type": "bytes4"
        }
      ],
      "name": "supportsInterface",
      "outputs": [
        {
          "internalType": "bool",
          "name": "",
          "type": "bool"
        }
      ],
      "stateMutability": "view",
      "type": "function",
      "constant": true
    },
    {
      "inputs": [],
      "name": "name",
      "outputs": [
        {
          "internalType": "string",
          "name": "",
          "type": "string"
        }
      ],
      "stateMutability": "view",
      "type": "function",
      "constant": true
    },
    {
      "inputs": [],
      "name": "symbol",
      "outputs": [
        {
          "internalType": "string",
          "name": "",
          "type": "string"
        }
      ],
      "stateMutability": "view",
      "type": "function",
      "constant": true
    },
    {
      "inputs": [
        {
          "internalType": "address",
          "name": "ownerAddress",
          "type": "address"
        },
        {
          "internalType": "uint256",
          "name": "tokenId",
          "type": "uint256"
        },
        {
          "internalType": "bytes",
          "name": "metadataURI",
          "type": "bytes"
        }
      ],
      "name": "mint",
      "outputs": [
        {
          "internalType": "bool",
          "name": "",
          "type": "bool"
        }
      ],
      "stateMutability": "nonpayable",
      "type": "function"
    },
    {
      "inputs": [
        {
          "internalType": "uint256",
          "name": "tokenId",
          "type": "uint256"
        }
      ],
      "name": "burn",
      "outputs": [
        {
          "internalType": "bool",
          "name": "",
          "type": "bool"
        }
      ],
      "stateMutability": "nonpayable",
      "type": "function"
    },
    {
      "inputs": [],
      "name": "totalSupply",
      "outputs": [
        {
          "internalType": "uint256",
          "name": "",
          "type": "uint256"
        }
      ],
      "stateMutability": "view",
      "type": "function",
      "constant": true
    },
    {
      "inputs": [
        {
          "internalType": "uint256",
          "name": "_tokenId",
          "type": "uint256"
        }
      ],
      "name": "tokenURI",
      "outputs": [
        {
          "internalType": "string",
          "name": "",
          "type": "string"
        }
      ],
      "stateMutability": "view",
      "type": "function",
      "constant": true
    },
    {
      "inputs": [
        {
          "internalType": "uint256",
          "name": "_index",
          "type": "uint256"
        }
      ],
      "name": "tokenByIndex",
      "outputs": [
        {
          "internalType": "uint256",
          "name": "",
          "type": "uint256"
        }
      ],
      "stateMutability": "view",
      "type": "function",
      "constant": true
    },
    {
      "inputs": [
        {
          "internalType": "address",
          "name": "_owner",
          "type": "address"
        }
      ],
      "name": "balanceOf",
      "outputs": [
        {
          "internalType": "uint256",
          "name": "",
          "type": "uint256"
        }
      ],
      "stateMutability": "view",
      "type": "function",
      "constant": true
    },
    {
      "inputs": [
        {
          "internalType": "address",
          "name": "_owner",
          "type": "address"
        },
        {
          "internalType": "uint256",
          "name": "_index",
          "type": "uint256"
        }
      ],
      "name": "tokenOfOwnerByIndex",
      "outputs": [
        {
          "internalType": "uint256",
          "name": "",
          "type": "uint256"
        }
      ],
      "stateMutability": "view",
      "type": "function",
      "constant": true
    },
    {
      "inputs": [
        {
          "internalType": "uint256",
          "name": "_tokenId",
          "type": "uint256"
        }
      ],
      "name": "ownerOf",
      "outputs": [
        {
          "internalType": "address",
          "name": "",
          "type": "address"
        }
      ],
      "stateMutability": "view",
      "type": "function",
      "constant": true
    },
    {
      "inputs": [
        {
          "internalType": "bytes",
          "name": "newName",
          "type": "bytes"
        },
        {
          "internalType": "bytes",
          "name": "newSymbol",
          "type": "bytes"
        }
      ],
      "name": "collectionRename",
      "outputs": [],
      "stateMutability": "nonpayable",
      "type": "function"
    },
    {
      "inputs": [
        {
          "internalType": "address",
          "name": "_from",
          "type": "address"
        },
        {
          "internalType": "address",
          "name": "_to",
          "type": "address"
        },
        {
          "internalType": "uint256",
          "name": "_tokenId",
          "type": "uint256"
        }
      ],
      "name": "safeTransferFrom",
      "outputs": [],
      "stateMutability": "payable",
      "type": "function",
      "payable": true
    },
    {
      "inputs": [
        {
          "internalType": "address",
          "name": "_from",
          "type": "address"
        },
        {
          "internalType": "address",
          "name": "_to",
          "type": "address"
        },
        {
          "internalType": "uint256",
          "name": "_tokenId",
          "type": "uint256"
        },
        {
          "internalType": "bytes",
          "name": "data",
          "type": "bytes"
        }
      ],
      "name": "safeTransferFrom",
      "outputs": [],
      "stateMutability": "payable",
      "type": "function",
      "payable": true
    },
    {
      "inputs": [
        {
          "internalType": "address",
          "name": "_from",
          "type": "address"
        },
        {
          "internalType": "address",
          "name": "_to",
          "type": "address"
        },
        {
          "internalType": "uint256",
          "name": "_tokenId",
          "type": "uint256"
        }
      ],
      "name": "transferFrom",
      "outputs": [],
      "stateMutability": "payable",
      "type": "function",
      "payable": true
    },
    {
      "inputs": [
        {
          "internalType": "address",
          "name": "_approved",
          "type": "address"
        },
        {
          "internalType": "uint256",
          "name": "_tokenId",
          "type": "uint256"
        }
      ],
      "name": "approve",
      "outputs": [],
      "stateMutability": "payable",
      "type": "function",
      "payable": true
    },
    {
      "inputs": [
        {
          "internalType": "address",
          "name": "_operator",
          "type": "address"
        },
        {
          "internalType": "bool",
          "name": "_approved",
          "type": "bool"
        }
      ],
      "name": "s",
      "outputs": [],
      "stateMutability": "nonpayable",
      "type": "function"
    },
    {
      "inputs": [
        {
          "internalType": "uint256",
          "name": "_tokenId",
          "type": "uint256"
        }
      ],
      "name": "getApproved",
      "outputs": [
        {
          "internalType": "address",
          "name": "",
          "type": "address"
        }
      ],
      "stateMutability": "view",
      "type": "function",
      "constant": true
    },
    {
      "inputs": [
        {
          "internalType": "address",
          "name": "_owner",
          "type": "address"
        },
        {
          "internalType": "address",
          "name": "_operator",
          "type": "address"
        }
      ],
      "name": "isApprovedForAll",
      "outputs": [
        {
          "internalType": "bool",
          "name": "",
          "type": "bool"
        }
      ],
      "stateMutability": "view",
      "type": "function",
      "constant": true
    },
    {
      "inputs": [
        {
          "internalType": "address",
          "name": "_operator",
          "type": "address"
        },
        {
          "internalType": "address",
          "name": "_from",
          "type": "address"
        },
        {
          "internalType": "uint256",
          "name": "_tokenId",
          "type": "uint256"
        },
        {
          "internalType": "bytes",
          "name": "_data",
          "type": "bytes"
        }
      ],
      "name": "onERC721Received",
      "outputs": [
        {
          "internalType": "bytes4",
          "name": "",
          "type": "bytes4"
        }
      ],
      "stateMutability": "nonpayable",
      "type": "function"
    }
  ],
  "bytecode": "0x60806040523480156200001157600080fd5b5060405162001fd038038062001fd0833981016040819052620000349162000300565b600080546001600160a01b0319163317905581516200005b906001906020850190620001af565b50805162000071906002906020840190620001af565b50600080806200008062000179565b60066020527fb66f683815876ebab61acbca8837c67dcf18be5c574bb0f6d4b6cfa43c4177c08054600160ff1991821681179092557f477a984de5936bcb02475f64e0ea676103106ac0785c67bf7e9e846450b51ef680548216831790556001600160e01b031985811660009081526040808220805485168617905586831682528082208054851686179055918516815281812080549093168417909255905490519497509295509093507fd9f54822c481f9bbb4b5ebbba6af6683ca4509010aff7fb8ecda36301f3989d09262000166926001600160a01b0316919060029062000414565b60405180910390a15050505050620004c0565b7fb2932e9258227754656ce58b30f167a4e5c6a3dc4cff1623f2dc81855a22da59635b5e139f60e01b63780e9d6360e01b909192565b828054620001bd906200046d565b90600052602060002090601f016020900481019282620001e157600085556200022c565b82601f10620001fc57805160ff19168380011785556200022c565b828001600101855582156200022c579182015b828111156200022c5782518255916020019190600101906200020f565b506200023a9291506200023e565b5090565b5b808211156200023a57600081556001016200023f565b600082601f83011262000266578081fd5b81516001600160401b0380821115620002835762000283620004aa565b6040516020601f8401601f1916820181018381118382101715620002ab57620002ab620004aa565b6040528382528584018101871015620002c2578485fd5b8492505b83831015620002e55785830181015182840182015291820191620002c6565b83831115620002f657848185840101525b5095945050505050565b6000806040838503121562000313578182fd5b82516001600160401b03808211156200032a578384fd5b620003388683870162000255565b935060208501519150808211156200034e578283fd5b506200035d8582860162000255565b9150509250929050565b8054600090600281046001808316806200038257607f831692505b6020808410821415620003a357634e487b7160e01b86526022600452602486fd5b620003af848962000464565b828015620003c65760018114620003d85762000407565b60ff1987168252828201975062000407565b620003e38962000458565b60005b878110156200040157815484820152908601908401620003e6565b83019850505b5050505050505092915050565b6001600160a01b03841681526060602082018190526000906200043a9083018562000367565b82810360408401526200044e818562000367565b9695505050505050565b60009081526020902090565b90815260200190565b6002810460018216806200048257607f821691505b60208210811415620004a457634e487b7160e01b600052602260045260246000fd5b50919050565b634e487b7160e01b600052604160045260246000fd5b611b0080620004d06000396000f3fe6080604052600436106101665760003560e01c806342966c68116100d157806395d89b411161008a578063df727d3b11610064578063df727d3b146103ec578063e5326ab114610401578063e985e9c514610416578063eb6faa091461043657610166565b806395d89b41146103a4578063b88d4fde146103b9578063c87b56dd146103cc57610166565b806342966c68146102e45780634f6ccce7146103045780636352211e1461032457806370a08231146103445780639013c23a1461036457806394d008ef1461038457610166565b80631e642a04116101235780631e642a0414610254578063204a875a1461027457806323b872dd146102895780632f39352a1461029c5780632f745c59146102b157806342842e0e146102d157610166565b806301ffc9a71461016b57806306fdde03146101a1578063081812fc146101c3578063095ea7b3146101f0578063150b7a021461020557806318160ddd14610232575b600080fd5b34801561017757600080fd5b5061018b61018636600461164c565b61044b565b604051610198919061188a565b60405180910390f35b3480156101ad57600080fd5b506101b661046e565b60405161019891906118aa565b3480156101cf57600080fd5b506101e36101de3660046116e1565b610500565b604051610198919061180f565b6102036101fe3660046115cb565b61051b565b005b34801561021157600080fd5b50610225610220366004611524565b6105b3565b6040516101989190611895565b34801561023e57600080fd5b5061024761064b565b60405161019891906119f9565b34801561026057600080fd5b5061020361026f366004611684565b610651565b34801561028057600080fd5b506102476106de565b6102036102973660046114e9565b6106e4565b3480156102a857600080fd5b506101b6610916565b3480156102bd57600080fd5b506102476102cc3660046115cb565b6109a4565b6102036102df3660046114e9565b610a05565b3480156102f057600080fd5b5061018b6102ff3660046116e1565b610a63565b34801561031057600080fd5b5061024761031f3660046116e1565b610b68565b34801561033057600080fd5b506101e361033f3660046116e1565b610b9f565b34801561035057600080fd5b5061024761035f366004611496565b610bef565b34801561037057600080fd5b5061020361037f366004611591565b610c33565b34801561039057600080fd5b5061018b61039f3660046115f4565b610ca2565b3480156103b057600080fd5b506101b6610f05565b6102036103c7366004611524565b610f14565b3480156103d857600080fd5b506101b66103e73660046116e1565b611239565b3480156103f857600080fd5b506101e36112db565b34801561040d57600080fd5b506101b66112ea565b34801561042257600080fd5b5061018b6104313660046114b7565b6112f7565b34801561044257600080fd5b50610247611325565b6001600160e01b0319811660009081526006602052604090205460ff165b919050565b60606001805461047d90611a25565b80601f01602080910402602001604051908101604052809291908181526020018280546104a990611a25565b80156104f65780601f106104cb576101008083540402835291602001916104f6565b820191906000526020600020905b8154815290600101906020018083116104d957829003601f168201915b5050505050905090565b6000908152600d60205260409020546001600160a01b031690565b6000818152600b60205260409020546001600160a01b0316331461055a5760405162461bcd60e51b8152600401610551906119c1565b60405180910390fd5b6000818152600d602052604080822080546001600160a01b0319166001600160a01b0386169081179091559051839233917f8c5be1e5ebec7d5bd14f71427d1e84f3dd0314c0f7b2291e5b200ac8c7c3b9259190a45050565b600354604051630a85bd0160e11b81526000916001600160a01b031690819063150b7a02906105ee908a908a908a908a908a90600401611823565b602060405180830381600087803b15801561060857600080fd5b505af115801561061c573d6000803e3d6000fd5b505050506040513d601f19601f820116820180604052508101906106409190611668565b979650505050505050565b60045490565b6000546001600160a01b0316331461067b5760405162461bcd60e51b81526004016105519061196d565b7f4460005c4928761c85b469fc4cf57c38f2dcfdbb7783fe61282bfbf16fcc5c7960018585600286866040516106b6969594939291906118bd565b60405180910390a16106ca6001858561132b565b506106d76002838361132b565b5050505050565b60045481565b6000818152600b60205260409020548390839083906001600160a01b03161580159061077457506000818152600b60205260409020546001600160a01b031632148061074657506000818152600d60205260409020546001600160a01b031632145b8061077457506001600160a01b0383166000908152600e6020908152604080832032845290915290205460ff165b801561079957506000818152600b60205260409020546001600160a01b038481169116145b80156107ad57506001600160a01b03821615155b6107c95760405162461bcd60e51b8152600401610551906119a5565b6000818152600b6020908152604080832080546001600160a01b0319166001600160a01b0387811691909117909155861683526007909152812080549161080f83611a0e565b90915550506001600160a01b038216600090815260076020526040812080549161083883611a60565b90915550506001600160a01b038084166000818152600960209081526040808320868452825280832054948716808452600a83528184205494845260088084528285208786528452828520859055908452909152812084918361089a81611a60565b945081526020019081526020016000208190555085876001600160a01b0316896001600160a01b0316600080516020611aab83398151915260405160405180910390a4604051869060009033907f8c5be1e5ebec7d5bd14f71427d1e84f3dd0314c0f7b2291e5b200ac8c7c3b925908390a45050505050505050565b6002805461092390611a25565b80601f016020809104026020016040519081016040528092919081815260200182805461094f90611a25565b801561099c5780601f106109715761010080835404028352916020019161099c565b820191906000526020600020905b81548152906001019060200180831161097f57829003601f168201915b505050505081565b6001600160a01b0382166000908152600760205260408120548211156109dc5760405162461bcd60e51b815260040161055190611935565b506001600160a01b03919091166000908152600860209081526040808320938352929052205490565b604051635c46a7ef60e11b8152309063b88d4fde90610a2c90869086908690600401611857565b600060405180830381600087803b158015610a4657600080fd5b505af1158015610a5a573d6000803e3d6000fd5b50505050505050565b336000818152600960209081526040808320858452825280832054938352600882528083208484528252808320839055848352600b825280832080546001600160a01b03191690558051808301808352848252868552600c9093529083209051929392610ad092906113af565b506000838152600d6020908152604080832080546001600160a01b031916905533835260079091528120805491610b0683611a0e565b90915550506005546000848152601060209081526040808320849055928252600f90529081208190556004805491610b3d83611a0e565b909155505060405183906000903390600080516020611aab833981519152908390a450600192915050565b6000600554821115610b8c5760405162461bcd60e51b815260040161055190611935565b506000908152600f602052604090205490565b6000818152600b60205260408120546001600160a01b0316610bd35760405162461bcd60e51b8152600401610551906119dd565b506000908152600b60205260409020546001600160a01b031690565b60006001600160a01b038216610c175760405162461bcd60e51b815260040161055190611989565b506001600160a01b031660009081526007602052604090205490565b336000818152600e602090815260408083206001600160a01b038716808552925291829020805460ff191685151517905590519091907f17307eab39ab6107e8899845ad3d59bd9653f200f220920489ca2b5937696c3190610c9690859061188a565b60405180910390a35050565b600080546001600160a01b03163314610ccd5760405162461bcd60e51b815260040161055190611919565b6001600160a01b0385166000908152600a602090815260408083205460089092528220909186919083610cff81611a60565b90825260208083019390935260409182016000908120949094556001600160a01b038a16808552600984528285208a86528452828520829055600580548652600f85528386208b9055548a86526010855283862055600b845282852080546001600160a01b0319169091179055600c909252909120909150610d8290858561132b565b506001600160a01b0386166000908152600760205260408120805491610da783611a60565b90915550506001600160a01b0386166000908152600a60205260408120805491610dd083611a60565b909155505060048054906000610de583611a60565b909155505060058054906000610dfa83611a60565b9091555050853b8015610ed257600380546001600160a01b0319166001600160a01b038916179055604051630a85bd0160e11b8152600090309063150b7a0290610e4c90849081908c90600401611857565b602060405180830381600087803b158015610e6657600080fd5b505af1158015610e7a573d6000803e3d6000fd5b505050506040513d601f19601f82011682018060405250810190610e9e9190611668565b90506001600160e01b03198116630a85bd0160e11b14610ed05760405162461bcd60e51b815260040161055190611951565b505b60405186906001600160a01b03891690600090600080516020611aab833981519152908290a45060019695505050505050565b60606002805461047d90611a25565b6000838152600b60205260409020548590859085906001600160a01b031615801590610fa457506000818152600b60205260409020546001600160a01b0316321480610f7657506000818152600d60205260409020546001600160a01b031632145b80610fa457506001600160a01b0383166000908152600e6020908152604080832032845290915290205460ff165b8015610fc957506000818152600b60205260409020546001600160a01b038481169116145b8015610fdd57506001600160a01b03821615155b610ff95760405162461bcd60e51b8152600401610551906119a5565b6000818152600b6020908152604080832080546001600160a01b0319166001600160a01b0387811691909117909155861683526007909152812080549161103f83611a0e565b90915550506001600160a01b038216600090815260076020526040812080549161106883611a60565b90915550506001600160a01b038084166000818152600960209081526040808320868452825280832054948716808452600a8352818420549484526008808452828520878652845282852085905590845290915281208491836110ca81611a60565b9082526020820192909252604001600020919091559050883b3381156111cd578a600360006101000a8154816001600160a01b0302191690836001600160a01b031602179055506000306001600160a01b031663150b7a02838f8e8e8e6040518663ffffffff1660e01b8152600401611147959493929190611823565b602060405180830381600087803b15801561116157600080fd5b505af1158015611175573d6000803e3d6000fd5b505050506040513d601f19601f820116820180604052508101906111999190611668565b90506001600160e01b03198116630a85bd0160e11b146111cb5760405162461bcd60e51b815260040161055190611951565b505b898b6001600160a01b03168d6001600160a01b0316600080516020611aab83398151915260405160405180910390a46040518a9060009033907f8c5be1e5ebec7d5bd14f71427d1e84f3dd0314c0f7b2291e5b200ac8c7c3b925908390a4505050505050505050505050565b6000818152600c6020526040902080546060919061125690611a25565b80601f016020809104026020016040519081016040528092919081815260200182805461128290611a25565b80156112cf5780601f106112a4576101008083540402835291602001916112cf565b820191906000526020600020905b8154815290600101906020018083116112b257829003601f168201915b50505050509050919050565b6000546001600160a01b031681565b6001805461092390611a25565b6001600160a01b039182166000908152600e6020908152604080832093909416825291909152205460ff1690565b60055481565b82805461133790611a25565b90600052602060002090601f016020900481019282611359576000855561139f565b82601f106113725782800160ff1982351617855561139f565b8280016001018555821561139f579182015b8281111561139f578235825591602001919060010190611384565b506113ab929150611423565b5090565b8280546113bb90611a25565b90600052602060002090601f0160209004810192826113dd576000855561139f565b82601f106113f657805160ff191683800117855561139f565b8280016001018555821561139f579182015b8281111561139f578251825591602001919060010190611408565b5b808211156113ab5760008155600101611424565b80356001600160a01b038116811461046957600080fd5b60008083601f840112611460578182fd5b50813567ffffffffffffffff811115611477578182fd5b60208301915083602082850101111561148f57600080fd5b9250929050565b6000602082840312156114a7578081fd5b6114b082611438565b9392505050565b600080604083850312156114c9578081fd5b6114d283611438565b91506114e060208401611438565b90509250929050565b6000806000606084860312156114fd578081fd5b61150684611438565b925061151460208501611438565b9150604084013590509250925092565b60008060008060006080868803121561153b578081fd5b61154486611438565b945061155260208701611438565b935060408601359250606086013567ffffffffffffffff811115611574578182fd5b6115808882890161144f565b969995985093965092949392505050565b600080604083850312156115a3578182fd5b6115ac83611438565b9150602083013580151581146115c0578182fd5b809150509250929050565b600080604083850312156115dd578182fd5b6115e683611438565b946020939093013593505050565b60008060008060608587031215611609578384fd5b61161285611438565b935060208501359250604085013567ffffffffffffffff811115611634578283fd5b6116408782880161144f565b95989497509550505050565b60006020828403121561165d578081fd5b81356114b081611a91565b600060208284031215611679578081fd5b81516114b081611a91565b60008060008060408587031215611699578384fd5b843567ffffffffffffffff808211156116b0578586fd5b6116bc8883890161144f565b909650945060208701359150808211156116d4578384fd5b506116408782880161144f565b6000602082840312156116f2578081fd5b5035919050565b60008284528282602086013780602084860101526020601f19601f85011685010190509392505050565b60008151808452815b818110156117485760208185018101518683018201520161172c565b818111156117595782602083870101525b50601f01601f19169290920160200192915050565b80546000906002810460018083168061178857607f831692505b60208084108214156117a857634e487b7160e01b86526022600452602486fd5b6117b284896119f9565b8280156117c657600181146117d757611802565b60ff19871682528282019750611802565b6117e089611a02565b60005b878110156117fc578154848201529086019084016117e3565b83019850505b5050505050505092915050565b6001600160a01b0391909116815260200190565b6001600160a01b038681168252851660208201526040810184905260806060820181905260009061064090830184866116f9565b6001600160a01b039384168152919092166020820152604081019190915260806060820181905260009082015260a00190565b901515815260200190565b6001600160e01b031991909116815260200190565b6000602082526114b06020830184611723565b6000608082526118d0608083018961176e565b82810360208401526118e381888a6116f9565b905082810360408401526118f7818761176e565b9050828103606084015261190c8185876116f9565b9998505050505050505050565b602080825260029082015261303760f01b604082015260600190565b602080825260029082015261181b60f11b604082015260600190565b6020808252600290820152610c0d60f21b604082015260600190565b602080825260029082015261060760f31b604082015260600190565b602080825260029082015261303160f01b604082015260600190565b602080825260029082015261303360f01b604082015260600190565b602080825260029082015261303560f01b604082015260600190565b602080825260029082015261181960f11b604082015260600190565b90815260200190565b60009081526020902090565b600081611a1d57611a1d611a7b565b506000190190565b600281046001821680611a3957607f821691505b60208210811415611a5a57634e487b7160e01b600052602260045260246000fd5b50919050565b6000600019821415611a7457611a74611a7b565b5060010190565b634e487b7160e01b600052601160045260246000fd5b6001600160e01b031981168114611aa757600080fd5b5056feddf252ad1be2c89b69c2b068fc378daa952ba7f163c4a11628f55a4df523b3efa2646970667358221220aa7554e2895969a9a6ae98f4230b57d0d394e7c8a12cb64b06deb55440929b4364736f6c63430008000033",
  "immutableReferences": {},
  "source": "// SPDX-License-Identifier: MIT\r\n\r\npragma solidity ^0.8.0;\r\n\r\n// Interfaces\r\ninterface IERC721TokenReceiver {\r\n    function onERC721Received(address _operator, address _from, uint256 _tokenId, bytes calldata _data) external returns(bytes4);\r\n}\r\n\r\ninterface IERC165 {\r\n    function supportsInterface(bytes4 interfaceID) external view returns (bool);\r\n}\r\n\r\ninterface IERC721 {\r\n    \r\n    event Transfer(address indexed _from, address indexed _to, uint256 indexed _tokenId);\r\n    event Approval(address indexed _owner, address indexed _approved, uint256 indexed _tokenId);\r\n    event ApprovalForAll(address indexed _owner, address indexed _operator, bool _approved);\r\n\r\n    function balanceOf(address _owner) external view returns (uint256);\r\n    function ownerOf(uint256 _tokenId) external view returns (address);\r\n    function safeTransferFrom(address _from, address _to, uint256 _tokenId, bytes calldata data) external payable;\r\n    function safeTransferFrom(address _from, address _to, uint256 _tokenId) external payable;\r\n    function transferFrom(address _from, address _to, uint256 _tokenId) external payable;\r\n    function approve(address _approved, uint256 _tokenId) external payable;\r\n    function s(address _operator, bool _approved) external;\r\n    function getApproved(uint256 _tokenId) external view returns (address);\r\n    function isApprovedForAll(address _owner, address _operator) external view returns (bool);\r\n}\r\n\r\ninterface IERC721Metadata {\r\n    function name() external view returns (string memory);\r\n    function symbol() external view returns (string memory);\r\n    function tokenURI(uint256 _tokenId) external view returns (string memory);\r\n}\r\n\r\ninterface ERC721Enumerable {\r\n    function totalSupply() external view returns (uint256);\r\n    function tokenByIndex(uint256 _index) external view returns (uint256);\r\n    function tokenOfOwnerByIndex(address _owner, uint256 _index) external view returns (uint256);\r\n}\r\n\r\n// Contract\r\ncontract ERC721 is IERC165, IERC721, IERC721TokenReceiver, IERC721Metadata, ERC721Enumerable {\r\n    //State variables\r\n    address public collectionOwner;\r\n    bytes public collectionName;\r\n    bytes public collectionSymbol;\r\n    address private recipientContractAddress;\r\n    uint public totalSupplyCounter;\r\n    uint public lastNftIndexOfCollection;\r\n\r\n    //Events\r\n    event CollectionCreate(address ownerOfCollection, bytes nameOfCollection, bytes symbolOfCollection);\r\n    event CollectionRename(bytes previousName, bytes currentName, bytes previousSymbol, bytes currentSymbol);\r\n\r\n    //Mappings\r\n    mapping(bytes4 => bool) private supportedInterfaces;\r\n    mapping(address => uint256) private nftCountOfOwner;\r\n    mapping(address => mapping(uint => uint256)) private nftListOfOwner;\r\n    mapping(address => mapping(uint256 => uint)) private nftIndexOfOwner;\r\n    mapping(address => uint) private lastNftIndexOfOwner;\r\n    mapping(uint256 => address) private nftOwner;\r\n    mapping(uint256 => bytes) private uriOf;\r\n    mapping(uint256 => address) private approvedOf;\r\n    mapping(address => mapping(address => bool)) private approvedForAllNFTsOf;\r\n    mapping(uint => uint256) private nftFromCollection;\r\n    mapping(uint256 => uint) private nftIndexInCollection;\r\n\r\n    //Modifiers\r\n    modifier justTransfer(address _from, address _to, uint256 _tokenId) {\r\n        require( nftOwner[_tokenId] != address(0x0) && (nftOwner[_tokenId] == tx.origin || approvedOf[_tokenId] == tx.origin || approvedForAllNFTsOf[_from][tx.origin]) && nftOwner[_tokenId] == _from && _to != address(0x0), \"03\");\r\n        // 03: At least one of input data is not valid!\r\n        // Transfer NFT:\r\n        nftOwner[_tokenId] = _to;\r\n        nftCountOfOwner[_from] --;\r\n        nftCountOfOwner[_to] ++;\r\n        uint nftIndex = nftIndexOfOwner[_from][_tokenId];\r\n        uint lastNftIndex = lastNftIndexOfOwner[_to];\r\n        nftListOfOwner[_from][nftIndex] = 0;\r\n        nftListOfOwner[_to][lastNftIndex ++] = _tokenId;\r\n        _;\r\n    }\r\n\r\n    //Functions\r\n    constructor(bytes memory nameOfCollection, bytes memory symbolOfCollection) {\r\n        collectionOwner = msg.sender;\r\n        collectionName = nameOfCollection;\r\n        collectionSymbol = symbolOfCollection;\r\n        (bytes4 erc721Id, bytes4 erc721MetadataId, bytes4 erc721EnumerableId) = interfaceIdGenerator();\r\n        supportedInterfaces[this.onERC721Received.selector] = true;\r\n        supportedInterfaces[this.supportsInterface.selector] = true;\r\n        supportedInterfaces[erc721Id] = true;\r\n        supportedInterfaces[erc721MetadataId] = true;\r\n        supportedInterfaces[erc721EnumerableId] = true;\r\n        emit CollectionCreate(collectionOwner, collectionName, collectionSymbol);\r\n    }\r\n\r\n    function supportsInterface(bytes4 interfaceID) external override view returns (bool){\r\n        return supportedInterfaces[interfaceID];\r\n    }\r\n\r\n    function name() external override view returns (string memory){\r\n        return string(collectionName);\r\n    }\r\n\r\n    function symbol() external override view returns (string memory){\r\n        return string(collectionSymbol);\r\n    }\r\n\r\n    function mint(address ownerAddress, uint256 tokenId, bytes calldata metadataURI) external returns (bool){\r\n        require(collectionOwner == msg.sender, \"07\");\r\n        // 07: Only the owner of collection can do this job!\r\n        uint lastNftIndex = lastNftIndexOfOwner[ownerAddress];\r\n        nftListOfOwner[ownerAddress][lastNftIndex ++] = tokenId;\r\n        nftIndexOfOwner[ownerAddress][tokenId] = lastNftIndex;\r\n        nftFromCollection[lastNftIndexOfCollection] = tokenId;\r\n        nftIndexInCollection[tokenId] = lastNftIndexOfCollection;\r\n        nftOwner[tokenId] = ownerAddress;\r\n        uriOf[tokenId] = metadataURI;\r\n        nftCountOfOwner[ownerAddress] ++;\r\n        lastNftIndexOfOwner[ownerAddress] ++;\r\n        totalSupplyCounter ++;\r\n        lastNftIndexOfCollection ++;\r\n        uint codeSize;\r\n        assembly{\r\n            codeSize := extcodesize(ownerAddress)\r\n        }\r\n        if(codeSize > 0){\r\n            recipientContractAddress = ownerAddress;\r\n            bytes4 functionSelector = this.onERC721Received(address(0x0), address(0x0), tokenId, \"\");\r\n            require(functionSelector == bytes4(keccak256(\"onERC721Received(address,address,uint256,bytes)\")), \"04\");\r\n            // 04: The recipient contract couldn't handle the NFT receipt!\r\n        }\r\n        emit Transfer(address(0x0), ownerAddress, tokenId);\r\n        return true;\r\n    }\r\n\r\n    function burn(uint256 tokenId) external returns (bool){\r\n        uint nftIndex = nftIndexOfOwner[msg.sender][tokenId];\r\n        nftListOfOwner[msg.sender][nftIndex] = 0;\r\n        nftOwner[tokenId] = address(0x0);\r\n        uriOf[tokenId] = \"\";\r\n        approvedOf[tokenId] = address(0x0);\r\n        nftCountOfOwner[msg.sender] --;\r\n        nftIndexInCollection[tokenId] = lastNftIndexOfCollection;\r\n        nftFromCollection[lastNftIndexOfCollection] = 0;\r\n        totalSupplyCounter --;\r\n        emit Transfer(msg.sender, address(0x0), tokenId);\r\n        return true;\r\n    }\r\n\r\n    function totalSupply() external override view returns (uint256){\r\n        return totalSupplyCounter;\r\n    }\r\n\r\n    function tokenURI(uint256 _tokenId) external override view returns (string memory){\r\n        return string(uriOf[_tokenId]);\r\n    }\r\n\r\n    function tokenByIndex(uint256 _index) external override view returns (uint256){\r\n        require(_index <= lastNftIndexOfCollection, \"06\");\r\n        // 06: The NFT index is invalid!\r\n        return nftFromCollection[_index];\r\n    }\r\n\r\n    function balanceOf(address _owner) external override view returns (uint256){\r\n        require(_owner != address(0x0), \"01\");\r\n        // 01: Zero address is not valid!\r\n        return nftCountOfOwner[_owner];\r\n    }\r\n\r\n    function tokenOfOwnerByIndex(address _owner, uint256 _index) external override view returns (uint256){\r\n        require(_index <= nftCountOfOwner[_owner], \"06\");\r\n        return nftListOfOwner[_owner][_index];\r\n    }\r\n\r\n    function ownerOf(uint256 _tokenId) external override view returns (address){\r\n        require(nftOwner[_tokenId] != address(0x0), \"02\");\r\n        // 02: The token is invalid!\r\n        return (nftOwner[_tokenId]);\r\n    }\r\n\r\n    function collectionRename(bytes calldata newName, bytes calldata newSymbol) external {\r\n        require(collectionOwner == msg.sender, \"08\");\r\n        // 08: Only collection owner can rename it!\r\n        emit CollectionRename(collectionName, newName, collectionSymbol, newSymbol);\r\n        collectionName = newName;\r\n        collectionSymbol = newSymbol;\r\n    }\r\n\r\n    function safeTransferFrom(address _from, address _to, uint256 _tokenId, bytes calldata data) external override justTransfer(_from, _to, _tokenId) payable{    \r\n        // Ensure if the recipient is a contract it handles the NFT receipt:\r\n        uint codeSize;\r\n        address operator = msg.sender;\r\n        assembly{\r\n            codeSize := extcodesize(_to)\r\n        }\r\n        if(codeSize > 0){\r\n            recipientContractAddress = _to;\r\n            bytes4 functionSelector = this.onERC721Received(operator, _from, _tokenId, data);\r\n            require(functionSelector == bytes4(keccak256(\"onERC721Received(address,address,uint256,bytes)\")), \"04\");\r\n            // 04: The recipient contract couldn't handle the NFT receipt!\r\n        }\r\n        emit Transfer(_from, _to, _tokenId);\r\n        emit Approval(msg.sender, address(0x0), _tokenId);\r\n    }\r\n\r\n    function safeTransferFrom(address _from, address _to, uint256 _tokenId) external override payable{\r\n        this.safeTransferFrom(_from, _to, _tokenId, \"\");\r\n    }\r\n\r\n    function transferFrom(address _from, address _to, uint256 _tokenId) external override justTransfer(_from, _to, _tokenId) payable{\r\n        emit Transfer(_from, _to, _tokenId);\r\n        emit Approval(msg.sender, address(0x0), _tokenId);\r\n    }\r\n\r\n    function approve(address _approved, uint256 _tokenId) external override payable{\r\n        require(nftOwner[_tokenId] == msg.sender, \"05\");\r\n        // 05: The account is not authorized!;\r\n        approvedOf[_tokenId] = _approved;\r\n        emit Approval(msg.sender, _approved, _tokenId);\r\n    }\r\n\r\n    function s(address _operator, bool _approved) external override{\r\n        approvedForAllNFTsOf[msg.sender][_operator] = _approved;\r\n        emit ApprovalForAll(msg.sender, _operator, _approved);\r\n    }\r\n\r\n    function getApproved(uint256 _tokenId) external override view returns (address){\r\n        return approvedOf[_tokenId];\r\n    }\r\n\r\n    function isApprovedForAll(address _owner, address _operator) external override view returns (bool){\r\n        return approvedForAllNFTsOf[_owner][_operator];\r\n    }\r\n\r\n    function interfaceIdGenerator() private pure returns(bytes4, bytes4, bytes4){\r\n            bytes4 erc721Id = bytes4(keccak256(\"balanceOf(address)\")) ^\r\n                            bytes4(keccak256(\"ownerOf(uint256)\")) ^\r\n                            bytes4(keccak256(\"safeTransferFrom(address,address,uint256,bytes)\")) ^\r\n                            bytes4(keccak256(\"safeTransferFrom(address,address,uint256)\")) ^\r\n                            bytes4(keccak256(\"transferFrom(address,address,uint256)\")) ^\r\n                            bytes4(keccak256(\"approve(address,uint256)\")) ^\r\n                            bytes4(keccak256(\"s(address,bool)\")) ^\r\n                            bytes4(keccak256(\"getApproved(uint256)\")) ^\r\n                            bytes4(keccak256(\"isApprovedForAll(address,address)\"));\r\n            bytes4 erc721MetadataId = this.name.selector ^ this.symbol.selector ^ this.tokenURI.selector;\r\n            bytes4 erc721EnumerableId = this.totalSupply.selector ^ this.tokenByIndex.selector ^ this.tokenOfOwnerByIndex.selector;\r\n            return (erc721Id, erc721MetadataId, erc721EnumerableId);\r\n    }\r\n    function onERC721Received(address _operator, address _from, uint256 _tokenId, bytes calldata _data) external override returns(bytes4){\r\n        IERC721TokenReceiver recipientContract = IERC721TokenReceiver(recipientContractAddress);\r\n        return recipientContract.onERC721Received(_operator, _from, _tokenId, _data);\r\n    }\r\n}",
  "sourcePath": "E:\\smartContract\\contracts\\erc721.sol",
  "compiler": {
    "name": "solc",
    "version": "0.8.0+commit.c7dfd78e.Emscripten.clang"
  },
  "schemaVersion": "3.4.16",
  "updatedAt": "2024-06-23T16:15:11.689Z",
  "networkType": "ethereum",
  "devdoc": {
    "kind": "dev",
    "methods": {},
    "version": 1
  },
  "userdoc": {
    "kind": "user",
    "methods": {},
    "version": 1
  }
}