{
  "contractName": "ERC721",
  "abi": [
    {
      "inputs": [
        {
          "internalType": "bytes",
          "name": "nameOfCollection",
          "type": "bytes"
        },
        {
          "internalType": "bytes",
          "name": "symbolOfCollection",
          "type": "bytes"
        }
      ],
      "stateMutability": "nonpayable",
      "type": "constructor"
    },
    {
      "anonymous": false,
      "inputs": [
        {
          "indexed": true,
          "internalType": "address",
          "name": "_owner",
          "type": "address"
        },
        {
          "indexed": true,
          "internalType": "address",
          "name": "_approved",
          "type": "address"
        },
        {
          "indexed": true,
          "internalType": "uint256",
          "name": "_tokenId",
          "type": "uint256"
        }
      ],
      "name": "Approval",
      "type": "event"
    },
    {
      "anonymous": false,
      "inputs": [
        {
          "indexed": true,
          "internalType": "address",
          "name": "_owner",
          "type": "address"
        },
        {
          "indexed": true,
          "internalType": "address",
          "name": "_operator",
          "type": "address"
        },
        {
          "indexed": false,
          "internalType": "bool",
          "name": "_approved",
          "type": "bool"
        }
      ],
      "name": "ApprovalForAll",
      "type": "event"
    },
    {
      "anonymous": false,
      "inputs": [
        {
          "indexed": false,
          "internalType": "address",
          "name": "ownerOfCollection",
          "type": "address"
        },
        {
          "indexed": false,
          "internalType": "bytes",
          "name": "nameOfCollection",
          "type": "bytes"
        },
        {
          "indexed": false,
          "internalType": "bytes",
          "name": "symbolOfCollection",
          "type": "bytes"
        }
      ],
      "name": "CollectionCreate",
      "type": "event"
    },
    {
      "anonymous": false,
      "inputs": [
        {
          "indexed": false,
          "internalType": "bytes",
          "name": "previousName",
          "type": "bytes"
        },
        {
          "indexed": false,
          "internalType": "bytes",
          "name": "currentName",
          "type": "bytes"
        },
        {
          "indexed": false,
          "internalType": "bytes",
          "name": "previousSymbol",
          "type": "bytes"
        },
        {
          "indexed": false,
          "internalType": "bytes",
          "name": "currentSymbol",
          "type": "bytes"
        }
      ],
      "name": "CollectionRename",
      "type": "event"
    },
    {
      "anonymous": false,
      "inputs": [
        {
          "indexed": true,
          "internalType": "address",
          "name": "_from",
          "type": "address"
        },
        {
          "indexed": true,
          "internalType": "address",
          "name": "_to",
          "type": "address"
        },
        {
          "indexed": true,
          "internalType": "uint256",
          "name": "_tokenId",
          "type": "uint256"
        }
      ],
      "name": "Transfer",
      "type": "event"
    },
    {
      "inputs": [],
      "name": "collectionName",
      "outputs": [
        {
          "internalType": "bytes",
          "name": "",
          "type": "bytes"
        }
      ],
      "stateMutability": "view",
      "type": "function",
      "constant": true
    },
    {
      "inputs": [],
      "name": "collectionOwner",
      "outputs": [
        {
          "internalType": "address",
          "name": "",
          "type": "address"
        }
      ],
      "stateMutability": "view",
      "type": "function",
      "constant": true
    },
    {
      "inputs": [],
      "name": "collectionSymbol",
      "outputs": [
        {
          "internalType": "bytes",
          "name": "",
          "type": "bytes"
        }
      ],
      "stateMutability": "view",
      "type": "function",
      "constant": true
    },
    {
      "inputs": [],
      "name": "lastNftIndexOfCollection",
      "outputs": [
        {
          "internalType": "uint256",
          "name": "",
          "type": "uint256"
        }
      ],
      "stateMutability": "view",
      "type": "function",
      "constant": true
    },
    {
      "inputs": [],
      "name": "totalSupplyCounter",
      "outputs": [
        {
          "internalType": "uint256",
          "name": "",
          "type": "uint256"
        }
      ],
      "stateMutability": "view",
      "type": "function",
      "constant": true
    },
    {
      "inputs": [
        {
          "internalType": "bytes4",
          "name": "interfaceID",
          "type": "bytes4"
        }
      ],
      "name": "supportsInterface",
      "outputs": [
        {
          "internalType": "bool",
          "name": "",
          "type": "bool"
        }
      ],
      "stateMutability": "view",
      "type": "function",
      "constant": true
    },
    {
      "inputs": [],
      "name": "name",
      "outputs": [
        {
          "internalType": "string",
          "name": "",
          "type": "string"
        }
      ],
      "stateMutability": "view",
      "type": "function",
      "constant": true
    },
    {
      "inputs": [],
      "name": "symbol",
      "outputs": [
        {
          "internalType": "string",
          "name": "",
          "type": "string"
        }
      ],
      "stateMutability": "view",
      "type": "function",
      "constant": true
    },
    {
      "inputs": [
        {
          "internalType": "address",
          "name": "ownerAddress",
          "type": "address"
        },
        {
          "internalType": "uint256",
          "name": "tokenId",
          "type": "uint256"
        },
        {
          "internalType": "bytes",
          "name": "metadataURI",
          "type": "bytes"
        }
      ],
      "name": "mint",
      "outputs": [
        {
          "internalType": "bool",
          "name": "",
          "type": "bool"
        }
      ],
      "stateMutability": "nonpayable",
      "type": "function"
    },
    {
      "inputs": [
        {
          "internalType": "uint256",
          "name": "tokenId",
          "type": "uint256"
        }
      ],
      "name": "burn",
      "outputs": [
        {
          "internalType": "bool",
          "name": "",
          "type": "bool"
        }
      ],
      "stateMutability": "nonpayable",
      "type": "function"
    },
    {
      "inputs": [],
      "name": "totalSupply",
      "outputs": [
        {
          "internalType": "uint256",
          "name": "",
          "type": "uint256"
        }
      ],
      "stateMutability": "view",
      "type": "function",
      "constant": true
    },
    {
      "inputs": [
        {
          "internalType": "uint256",
          "name": "_tokenId",
          "type": "uint256"
        }
      ],
      "name": "tokenURI",
      "outputs": [
        {
          "internalType": "string",
          "name": "",
          "type": "string"
        }
      ],
      "stateMutability": "view",
      "type": "function",
      "constant": true
    },
    {
      "inputs": [
        {
          "internalType": "uint256",
          "name": "_index",
          "type": "uint256"
        }
      ],
      "name": "tokenByIndex",
      "outputs": [
        {
          "internalType": "uint256",
          "name": "",
          "type": "uint256"
        }
      ],
      "stateMutability": "view",
      "type": "function",
      "constant": true
    },
    {
      "inputs": [
        {
          "internalType": "address",
          "name": "_owner",
          "type": "address"
        }
      ],
      "name": "balanceOf",
      "outputs": [
        {
          "internalType": "uint256",
          "name": "",
          "type": "uint256"
        }
      ],
      "stateMutability": "view",
      "type": "function",
      "constant": true
    },
    {
      "inputs": [
        {
          "internalType": "address",
          "name": "_owner",
          "type": "address"
        },
        {
          "internalType": "uint256",
          "name": "_index",
          "type": "uint256"
        }
      ],
      "name": "tokenOfOwnerByIndex",
      "outputs": [
        {
          "internalType": "uint256",
          "name": "",
          "type": "uint256"
        }
      ],
      "stateMutability": "view",
      "type": "function",
      "constant": true
    },
    {
      "inputs": [
        {
          "internalType": "uint256",
          "name": "_tokenId",
          "type": "uint256"
        }
      ],
      "name": "ownerOf",
      "outputs": [
        {
          "internalType": "address",
          "name": "",
          "type": "address"
        }
      ],
      "stateMutability": "view",
      "type": "function",
      "constant": true
    },
    {
      "inputs": [
        {
          "internalType": "bytes",
          "name": "newName",
          "type": "bytes"
        },
        {
          "internalType": "bytes",
          "name": "newSymbol",
          "type": "bytes"
        }
      ],
      "name": "collectionRename",
      "outputs": [],
      "stateMutability": "nonpayable",
      "type": "function"
    },
    {
      "inputs": [
        {
          "internalType": "address",
          "name": "_from",
          "type": "address"
        },
        {
          "internalType": "address",
          "name": "_to",
          "type": "address"
        },
        {
          "internalType": "uint256",
          "name": "_tokenId",
          "type": "uint256"
        }
      ],
      "name": "safeTransferFrom",
      "outputs": [],
      "stateMutability": "payable",
      "type": "function",
      "payable": true
    },
    {
      "inputs": [
        {
          "internalType": "address",
          "name": "_from",
          "type": "address"
        },
        {
          "internalType": "address",
          "name": "_to",
          "type": "address"
        },
        {
          "internalType": "uint256",
          "name": "_tokenId",
          "type": "uint256"
        },
        {
          "internalType": "bytes",
          "name": "data",
          "type": "bytes"
        }
      ],
      "name": "safeTransferFrom",
      "outputs": [],
      "stateMutability": "payable",
      "type": "function",
      "payable": true
    },
    {
      "inputs": [
        {
          "internalType": "address",
          "name": "_from",
          "type": "address"
        },
        {
          "internalType": "address",
          "name": "_to",
          "type": "address"
        },
        {
          "internalType": "uint256",
          "name": "_tokenId",
          "type": "uint256"
        }
      ],
      "name": "transferFrom",
      "outputs": [],
      "stateMutability": "payable",
      "type": "function",
      "payable": true
    },
    {
      "inputs": [
        {
          "internalType": "address",
          "name": "_approved",
          "type": "address"
        },
        {
          "internalType": "uint256",
          "name": "_tokenId",
          "type": "uint256"
        }
      ],
      "name": "approve",
      "outputs": [],
      "stateMutability": "payable",
      "type": "function",
      "payable": true
    },
    {
      "inputs": [
        {
          "internalType": "address",
          "name": "_operator",
          "type": "address"
        },
        {
          "internalType": "bool",
          "name": "_approved",
          "type": "bool"
        }
      ],
      "name": "s",
      "outputs": [],
      "stateMutability": "nonpayable",
      "type": "function"
    },
    {
      "inputs": [
        {
          "internalType": "uint256",
          "name": "_tokenId",
          "type": "uint256"
        }
      ],
      "name": "getApproved",
      "outputs": [
        {
          "internalType": "address",
          "name": "",
          "type": "address"
        }
      ],
      "stateMutability": "view",
      "type": "function",
      "constant": true
    },
    {
      "inputs": [
        {
          "internalType": "address",
          "name": "_owner",
          "type": "address"
        },
        {
          "internalType": "address",
          "name": "_operator",
          "type": "address"
        }
      ],
      "name": "isApprovedForAll",
      "outputs": [
        {
          "internalType": "bool",
          "name": "",
          "type": "bool"
        }
      ],
      "stateMutability": "view",
      "type": "function",
      "constant": true
    },
    {
      "inputs": [
        {
          "internalType": "address",
          "name": "_operator",
          "type": "address"
        },
        {
          "internalType": "address",
          "name": "_from",
          "type": "address"
        },
        {
          "internalType": "uint256",
          "name": "_tokenId",
          "type": "uint256"
        },
        {
          "internalType": "bytes",
          "name": "_data",
          "type": "bytes"
        }
      ],
      "name": "onERC721Received",
      "outputs": [
        {
          "internalType": "bytes4",
          "name": "",
          "type": "bytes4"
        }
      ],
      "stateMutability": "nonpayable",
      "type": "function"
    }
  ],
  "bytecode": "0x60806040523480156200001157600080fd5b5060405162002032380380620020328339810160408190526200003491620002e9565b600080546001600160a01b0319163317905581516200005b90600190602085019062000198565b5080516200007190600290602084019062000198565b506000808080806200008262000150565b6001600160e01b03198581166000908152600660205260408082208054600160ff19918216811790925588851684528284208054821683179055878516845282842080548216831790558685168452828420805482168317905593851683528183208054909416811790935590549051969b5094995092975090955093507fd9f54822c481f9bbb4b5ebbba6af6683ca4509010aff7fb8ecda36301f3989d0926200013b926001600160a01b03169190600290620003fd565b60405180910390a150505050505050620004a9565b630a85bd0160e11b6301ffc9a760e01b7fb2932e9258227754656ce58b30f167a4e5c6a3dc4cff1623f2dc81855a22da59635b5e139f60e01b63780e9d6360e01b9091929394565b828054620001a69062000456565b90600052602060002090601f016020900481019282620001ca576000855562000215565b82601f10620001e557805160ff191683800117855562000215565b8280016001018555821562000215579182015b8281111562000215578251825591602001919060010190620001f8565b506200022392915062000227565b5090565b5b8082111562000223576000815560010162000228565b600082601f8301126200024f578081fd5b81516001600160401b03808211156200026c576200026c62000493565b6040516020601f8401601f191682018101838111838210171562000294576200029462000493565b6040528382528584018101871015620002ab578485fd5b8492505b83831015620002ce5785830181015182840182015291820191620002af565b83831115620002df57848185840101525b5095945050505050565b60008060408385031215620002fc578182fd5b82516001600160401b038082111562000313578384fd5b62000321868387016200023e565b9350602085015191508082111562000337578283fd5b5062000346858286016200023e565b9150509250929050565b8054600090600281046001808316806200036b57607f831692505b60208084108214156200038c57634e487b7160e01b86526022600452602486fd5b6200039884896200044d565b828015620003af5760018114620003c157620003f0565b60ff19871682528282019750620003f0565b620003cc8962000441565b60005b87811015620003ea57815484820152908601908401620003cf565b83019850505b5050505050505092915050565b6001600160a01b0384168152606060208201819052600090620004239083018562000350565b828103604084015262000437818562000350565b9695505050505050565b60009081526020902090565b90815260200190565b6002810460018216806200046b57607f821691505b602082108114156200048d57634e487b7160e01b600052602260045260246000fd5b50919050565b634e487b7160e01b600052604160045260246000fd5b611b7980620004b96000396000f3fe6080604052600436106101665760003560e01c806342966c68116100d157806395d89b411161008a578063df727d3b11610064578063df727d3b146103ec578063e5326ab114610401578063e985e9c514610416578063eb6faa091461043657610166565b806395d89b41146103a4578063b88d4fde146103b9578063c87b56dd146103cc57610166565b806342966c68146102e45780634f6ccce7146103045780636352211e1461032457806370a08231146103445780639013c23a1461036457806394d008ef1461038457610166565b80631e642a04116101235780631e642a0414610254578063204a875a1461027457806323b872dd146102895780632f39352a1461029c5780632f745c59146102b157806342842e0e146102d157610166565b806301ffc9a71461016b57806306fdde03146101a1578063081812fc146101c3578063095ea7b3146101f0578063150b7a021461020557806318160ddd14610232575b600080fd5b34801561017757600080fd5b5061018b610186366004611689565b61044b565b60405161019891906118c7565b60405180910390f35b3480156101ad57600080fd5b506101b661046e565b60405161019891906118e7565b3480156101cf57600080fd5b506101e36101de36600461171e565b610500565b604051610198919061184c565b6102036101fe366004611608565b61051b565b005b34801561021157600080fd5b50610225610220366004611561565b6105a1565b60405161019891906118d2565b34801561023e57600080fd5b50610247610639565b6040516101989190611a52565b34801561026057600080fd5b5061020361026f3660046116c1565b61063f565b34801561028057600080fd5b506102476106cc565b610203610297366004611526565b6106d2565b3480156102a857600080fd5b506101b661093e565b3480156102bd57600080fd5b506102476102cc366004611608565b6109cc565b6102036102df366004611526565b610a2d565b3480156102f057600080fd5b5061018b6102ff36600461171e565b610a8b565b34801561031057600080fd5b5061024761031f36600461171e565b610b90565b34801561033057600080fd5b506101e361033f36600461171e565b610bc7565b34801561035057600080fd5b5061024761035f3660046114d3565b610c17565b34801561037057600080fd5b5061020361037f3660046115ce565b610c5b565b34801561039057600080fd5b5061018b61039f366004611631565b610cca565b3480156103b057600080fd5b506101b6610f57565b6102036103c7366004611561565b610f66565b3480156103d857600080fd5b506101b66103e736600461171e565b611276565b3480156103f857600080fd5b506101e3611318565b34801561040d57600080fd5b506101b6611327565b34801561042257600080fd5b5061018b6104313660046114f4565b611334565b34801561044257600080fd5b50610247611362565b6001600160e01b0319811660009081526006602052604090205460ff165b919050565b60606001805461047d90611a7e565b80601f01602080910402602001604051908101604052809291908181526020018280546104a990611a7e565b80156104f65780601f106104cb576101008083540402835291602001916104f6565b820191906000526020600020905b8154815290600101906020018083116104d957829003601f168201915b5050505050905090565b6000908152600d60205260409020546001600160a01b031690565b6000818152600b60205260409020546001600160a01b0316331461055a5760405162461bcd60e51b815260040161055190611a1a565b60405180910390fd5b6000818152600d602052604080822080546001600160a01b0319166001600160a01b038616908117909155905183923391600080516020611b248339815191529190a45050565b600354604051630a85bd0160e11b81526000916001600160a01b031690819063150b7a02906105dc908a908a908a908a908a90600401611860565b602060405180830381600087803b1580156105f657600080fd5b505af115801561060a573d6000803e3d6000fd5b505050506040513d601f19601f8201168201806040525081019061062e91906116a5565b979650505050505050565b60045490565b6000546001600160a01b031633146106695760405162461bcd60e51b8152600401610551906119aa565b7f4460005c4928761c85b469fc4cf57c38f2dcfdbb7783fe61282bfbf16fcc5c7960018585600286866040516106a4969594939291906118fa565b60405180910390a16106b860018585611368565b506106c560028383611368565b5050505050565b60045481565b6000818152600b60205260409020548390839083906001600160a01b03161580159061076257506000818152600b60205260409020546001600160a01b031632148061073457506000818152600d60205260409020546001600160a01b031632145b8061076257506001600160a01b0383166000908152600e6020908152604080832032845290915290205460ff165b801561078757506000818152600b60205260409020546001600160a01b038481169116145b801561079b57506001600160a01b03821615155b6107b75760405162461bcd60e51b8152600401610551906119fe565b6000818152600b6020908152604080832080546001600160a01b0319166001600160a01b038781169190911790915586168352600790915281208054916107fd83611a67565b90915550506001600160a01b038216600090815260076020526040812080549161082683611ab9565b90915550506001600160a01b038084166000818152600960209081526040808320868452825280832054948716808452600a83528184205494845260088084528285208786528452828520859055908452909152812084918361088881611ab9565b945081526020019081526020016000208190555082846001600160a01b0316866001600160a01b0316600080516020611b0483398151915260405160405180910390a460405183906000903390600080516020611b24833981519152908390a485876001600160a01b0316896001600160a01b0316600080516020611b0483398151915260405160405180910390a460405186906000903390600080516020611b24833981519152908390a45050505050505050565b6002805461094b90611a7e565b80601f016020809104026020016040519081016040528092919081815260200182805461097790611a7e565b80156109c45780601f10610999576101008083540402835291602001916109c4565b820191906000526020600020905b8154815290600101906020018083116109a757829003601f168201915b505050505081565b6001600160a01b038216600090815260076020526040812054821115610a045760405162461bcd60e51b815260040161055190611972565b506001600160a01b03919091166000908152600860209081526040808320938352929052205490565b604051635c46a7ef60e11b8152309063b88d4fde90610a5490869086908690600401611894565b600060405180830381600087803b158015610a6e57600080fd5b505af1158015610a82573d6000803e3d6000fd5b50505050505050565b336000818152600960209081526040808320858452825280832054938352600882528083208484528252808320839055848352600b825280832080546001600160a01b03191690558051808301808352848252868552600c9093529083209051929392610af892906113ec565b506000838152600d6020908152604080832080546001600160a01b031916905533835260079091528120805491610b2e83611a67565b90915550506005546000848152601060209081526040808320849055928252600f90529081208190556004805491610b6583611a67565b909155505060405183906000903390600080516020611b04833981519152908390a450600192915050565b6000600554821115610bb45760405162461bcd60e51b815260040161055190611972565b506000908152600f602052604090205490565b6000818152600b60205260408120546001600160a01b0316610bfb5760405162461bcd60e51b815260040161055190611a36565b506000908152600b60205260409020546001600160a01b031690565b60006001600160a01b038216610c3f5760405162461bcd60e51b8152600401610551906119c6565b506001600160a01b031660009081526007602052604090205490565b336000818152600e602090815260408083206001600160a01b038716808552925291829020805460ff191685151517905590519091907f17307eab39ab6107e8899845ad3d59bd9653f200f220920489ca2b5937696c3190610cbe9085906118c7565b60405180910390a35050565b60006001600160a01b038516610cf25760405162461bcd60e51b8152600401610551906119e2565b6000546001600160a01b03163314610d1c5760405162461bcd60e51b815260040161055190611956565b6001600160a01b0385166000908152600a602090815260408083205460089092528220909186919083610d4e81611ab9565b90825260208083019390935260409182016000908120949094556001600160a01b038a16808552600984528285208a86528452828520829055600580548652600f85528386208b9055548a86526010855283862055600b845282852080546001600160a01b0319169091179055600c909252909120909150610dd1908585611368565b506001600160a01b0386166000908152600760205260408120805491610df683611ab9565b90915550506001600160a01b0386166000908152600a60205260408120805491610e1f83611ab9565b909155505060048054906000610e3483611ab9565b909155505060058054906000610e4983611ab9565b909155505060405160009086906001600160a01b038916908390600080516020611b04833981519152908290a450853b8015610f4a57600380546001600160a01b0319166001600160a01b038916179055604051630a85bd0160e11b8152600090309063150b7a0290610ec490849081908c90600401611894565b602060405180830381600087803b158015610ede57600080fd5b505af1158015610ef2573d6000803e3d6000fd5b505050506040513d601f19601f82011682018060405250810190610f1691906116a5565b90506001600160e01b03198116630a85bd0160e11b14610f485760405162461bcd60e51b81526004016105519061198e565b505b5060019695505050505050565b60606002805461047d90611a7e565b6000838152600b60205260409020548590859085906001600160a01b031615801590610ff657506000818152600b60205260409020546001600160a01b0316321480610fc857506000818152600d60205260409020546001600160a01b031632145b80610ff657506001600160a01b0383166000908152600e6020908152604080832032845290915290205460ff165b801561101b57506000818152600b60205260409020546001600160a01b038481169116145b801561102f57506001600160a01b03821615155b61104b5760405162461bcd60e51b8152600401610551906119fe565b6000818152600b6020908152604080832080546001600160a01b0319166001600160a01b0387811691909117909155861683526007909152812080549161109183611a67565b90915550506001600160a01b03821660009081526007602052604081208054916110ba83611ab9565b90915550506001600160a01b038084166000818152600960209081526040808320868452825280832054948716808452600a83528184205494845260088084528285208786528452828520859055908452909152812084918361111c81611ab9565b945081526020019081526020016000208190555082846001600160a01b0316866001600160a01b0316600080516020611b0483398151915260405160405180910390a460405183906000903390600080516020611b24833981519152908390a4883b338115611268578a600360006101000a8154816001600160a01b0302191690836001600160a01b031602179055506000306001600160a01b031663150b7a02838f8e8e8e6040518663ffffffff1660e01b81526004016111e2959493929190611860565b602060405180830381600087803b1580156111fc57600080fd5b505af1158015611210573d6000803e3d6000fd5b505050506040513d601f19601f8201168201806040525081019061123491906116a5565b90506001600160e01b03198116630a85bd0160e11b146112665760405162461bcd60e51b81526004016105519061198e565b505b505050505050505050505050565b6000818152600c6020526040902080546060919061129390611a7e565b80601f01602080910402602001604051908101604052809291908181526020018280546112bf90611a7e565b801561130c5780601f106112e15761010080835404028352916020019161130c565b820191906000526020600020905b8154815290600101906020018083116112ef57829003601f168201915b50505050509050919050565b6000546001600160a01b031681565b6001805461094b90611a7e565b6001600160a01b039182166000908152600e6020908152604080832093909416825291909152205460ff1690565b60055481565b82805461137490611a7e565b90600052602060002090601f01602090048101928261139657600085556113dc565b82601f106113af5782800160ff198235161785556113dc565b828001600101855582156113dc579182015b828111156113dc5782358255916020019190600101906113c1565b506113e8929150611460565b5090565b8280546113f890611a7e565b90600052602060002090601f01602090048101928261141a57600085556113dc565b82601f1061143357805160ff19168380011785556113dc565b828001600101855582156113dc579182015b828111156113dc578251825591602001919060010190611445565b5b808211156113e85760008155600101611461565b80356001600160a01b038116811461046957600080fd5b60008083601f84011261149d578182fd5b50813567ffffffffffffffff8111156114b4578182fd5b6020830191508360208285010111156114cc57600080fd5b9250929050565b6000602082840312156114e4578081fd5b6114ed82611475565b9392505050565b60008060408385031215611506578081fd5b61150f83611475565b915061151d60208401611475565b90509250929050565b60008060006060848603121561153a578081fd5b61154384611475565b925061155160208501611475565b9150604084013590509250925092565b600080600080600060808688031215611578578081fd5b61158186611475565b945061158f60208701611475565b935060408601359250606086013567ffffffffffffffff8111156115b1578182fd5b6115bd8882890161148c565b969995985093965092949392505050565b600080604083850312156115e0578182fd5b6115e983611475565b9150602083013580151581146115fd578182fd5b809150509250929050565b6000806040838503121561161a578182fd5b61162383611475565b946020939093013593505050565b60008060008060608587031215611646578384fd5b61164f85611475565b935060208501359250604085013567ffffffffffffffff811115611671578283fd5b61167d8782880161148c565b95989497509550505050565b60006020828403121561169a578081fd5b81356114ed81611aea565b6000602082840312156116b6578081fd5b81516114ed81611aea565b600080600080604085870312156116d6578384fd5b843567ffffffffffffffff808211156116ed578586fd5b6116f98883890161148c565b90965094506020870135915080821115611711578384fd5b5061167d8782880161148c565b60006020828403121561172f578081fd5b5035919050565b60008284528282602086013780602084860101526020601f19601f85011685010190509392505050565b60008151808452815b8181101561178557602081850181015186830182015201611769565b818111156117965782602083870101525b50601f01601f19169290920160200192915050565b8054600090600281046001808316806117c557607f831692505b60208084108214156117e557634e487b7160e01b86526022600452602486fd5b6117ef8489611a52565b82801561180357600181146118145761183f565b60ff1987168252828201975061183f565b61181d89611a5b565b60005b8781101561183957815484820152908601908401611820565b83019850505b5050505050505092915050565b6001600160a01b0391909116815260200190565b6001600160a01b038681168252851660208201526040810184905260806060820181905260009061062e9083018486611736565b6001600160a01b039384168152919092166020820152604081019190915260806060820181905260009082015260a00190565b901515815260200190565b6001600160e01b031991909116815260200190565b6000602082526114ed6020830184611760565b60006080825261190d60808301896117ab565b828103602084015261192081888a611736565b9050828103604084015261193481876117ab565b90508281036060840152611949818587611736565b9998505050505050505050565b602080825260029082015261303760f01b604082015260600190565b602080825260029082015261181b60f11b604082015260600190565b6020808252600290820152610c0d60f21b604082015260600190565b602080825260029082015261060760f31b604082015260600190565b602080825260029082015261303160f01b604082015260600190565b602080825260029082015261303960f01b604082015260600190565b602080825260029082015261303360f01b604082015260600190565b602080825260029082015261303560f01b604082015260600190565b602080825260029082015261181960f11b604082015260600190565b90815260200190565b60009081526020902090565b600081611a7657611a76611ad4565b506000190190565b600281046001821680611a9257607f821691505b60208210811415611ab357634e487b7160e01b600052602260045260246000fd5b50919050565b6000600019821415611acd57611acd611ad4565b5060010190565b634e487b7160e01b600052601160045260246000fd5b6001600160e01b031981168114611b0057600080fd5b5056feddf252ad1be2c89b69c2b068fc378daa952ba7f163c4a11628f55a4df523b3ef8c5be1e5ebec7d5bd14f71427d1e84f3dd0314c0f7b2291e5b200ac8c7c3b925a2646970667358221220efb56fae7a5346562d3f5ac5eda484bf7b46008a4013701a929f127fbbbc9e1c64736f6c63430008000033",
  "immutableReferences": {},
  "source": "// SPDX-License-Identifier: MIT\r\n\r\npragma solidity ^0.8.0;\r\n\r\n// Interfaces\r\ninterface IERC721TokenReceiver {\r\n    function onERC721Received(address _operator, address _from, uint256 _tokenId, bytes calldata _data) external returns(bytes4);\r\n}\r\n\r\ninterface IERC165 {\r\n    function supportsInterface(bytes4 interfaceID) external view returns (bool);\r\n}\r\n\r\ninterface IERC721 {\r\n    \r\n    event Transfer(address indexed _from, address indexed _to, uint256 indexed _tokenId);\r\n    event Approval(address indexed _owner, address indexed _approved, uint256 indexed _tokenId);\r\n    event ApprovalForAll(address indexed _owner, address indexed _operator, bool _approved);\r\n\r\n    function balanceOf(address _owner) external view returns (uint256);\r\n    function ownerOf(uint256 _tokenId) external view returns (address);\r\n    function safeTransferFrom(address _from, address _to, uint256 _tokenId, bytes calldata data) external payable;\r\n    function safeTransferFrom(address _from, address _to, uint256 _tokenId) external payable;\r\n    function transferFrom(address _from, address _to, uint256 _tokenId) external payable;\r\n    function approve(address _approved, uint256 _tokenId) external payable;\r\n    function s(address _operator, bool _approved) external;\r\n    function getApproved(uint256 _tokenId) external view returns (address);\r\n    function isApprovedForAll(address _owner, address _operator) external view returns (bool);\r\n}\r\n\r\ninterface IERC721Metadata {\r\n    function name() external view returns (string memory);\r\n    function symbol() external view returns (string memory);\r\n    function tokenURI(uint256 _tokenId) external view returns (string memory);\r\n}\r\n\r\ninterface ERC721Enumerable {\r\n    function totalSupply() external view returns (uint256);\r\n    function tokenByIndex(uint256 _index) external view returns (uint256);\r\n    function tokenOfOwnerByIndex(address _owner, uint256 _index) external view returns (uint256);\r\n}\r\n\r\n// Contract\r\ncontract ERC721 is IERC165, IERC721, IERC721TokenReceiver, IERC721Metadata, ERC721Enumerable {\r\n    //State variables\r\n    address public collectionOwner;\r\n    bytes public collectionName;\r\n    bytes public collectionSymbol;\r\n    address private recipientContractAddress;\r\n    uint public totalSupplyCounter;\r\n    uint public lastNftIndexOfCollection;\r\n\r\n    //Events\r\n    event CollectionCreate(address ownerOfCollection, bytes nameOfCollection, bytes symbolOfCollection);\r\n    event CollectionRename(bytes previousName, bytes currentName, bytes previousSymbol, bytes currentSymbol);\r\n\r\n    //Mappings\r\n    mapping(bytes4 => bool) private supportedInterfaces;\r\n    mapping(address => uint256) private nftCountOfOwner;\r\n    mapping(address => mapping(uint => uint256)) private nftListOfOwner;\r\n    mapping(address => mapping(uint256 => uint)) private nftIndexOfOwner;\r\n    mapping(address => uint) private lastNftIndexOfOwner;\r\n    mapping(uint256 => address) private nftOwner;\r\n    mapping(uint256 => bytes) private uriOf;\r\n    mapping(uint256 => address) private approvedOf;\r\n    mapping(address => mapping(address => bool)) private approvedForAllNFTsOf;\r\n    mapping(uint => uint256) private nftFromCollection;\r\n    mapping(uint256 => uint) private nftIndexInCollection;\r\n\r\n    //Modifiers\r\n    modifier justTransfer(address _from, address _to, uint256 _tokenId) {\r\n        require( nftOwner[_tokenId] != address(0x0) && (nftOwner[_tokenId] == tx.origin || approvedOf[_tokenId] == tx.origin || approvedForAllNFTsOf[_from][tx.origin]) && nftOwner[_tokenId] == _from && _to != address(0x0), \"03\");\r\n        // 03: At least one of input data is not valid!\r\n        // Transfer NFT:\r\n        nftOwner[_tokenId] = _to;\r\n        nftCountOfOwner[_from] --;\r\n        nftCountOfOwner[_to] ++;\r\n        uint nftIndex = nftIndexOfOwner[_from][_tokenId];\r\n        uint lastNftIndex = lastNftIndexOfOwner[_to];\r\n        nftListOfOwner[_from][nftIndex] = 0;\r\n        nftListOfOwner[_to][lastNftIndex ++] = _tokenId;\r\n        emit Transfer(_from, _to, _tokenId);\r\n        emit Approval(msg.sender, address(0x0), _tokenId);\r\n        _;\r\n    }\r\n\r\n    //Functions\r\n    constructor(bytes memory nameOfCollection, bytes memory symbolOfCollection) {\r\n        collectionOwner = msg.sender;\r\n        collectionName = nameOfCollection;\r\n        collectionSymbol = symbolOfCollection;\r\n        (bytes4 erc721TokenReceiver, bytes4 erc165, bytes4 erc721Id, bytes4 erc721MetadataId, bytes4 erc721EnumerableId) = interfaceIdGenerator();\r\n        supportedInterfaces[erc721TokenReceiver] = true;\r\n        supportedInterfaces[erc165] = true;\r\n        supportedInterfaces[erc721Id] = true;\r\n        supportedInterfaces[erc721MetadataId] = true;\r\n        supportedInterfaces[erc721EnumerableId] = true;\r\n        emit CollectionCreate(collectionOwner, collectionName, collectionSymbol);\r\n    }\r\n\r\n    function supportsInterface(bytes4 interfaceID) external override view returns (bool){\r\n        return supportedInterfaces[interfaceID];\r\n    }\r\n\r\n    function name() external override view returns (string memory){\r\n        return string(collectionName);\r\n    }\r\n\r\n    function symbol() external override view returns (string memory){\r\n        return string(collectionSymbol);\r\n    }\r\n\r\n    function mint(address ownerAddress, uint256 tokenId, bytes calldata metadataURI) external returns (bool){\r\n        require(ownerAddress != address(0x0), \"09\");\r\n        // 09: Owner address is zero!\r\n        require(collectionOwner == msg.sender, \"07\");\r\n        // 07: Only the owner of collection can do this job!\r\n        uint lastNftIndex = lastNftIndexOfOwner[ownerAddress];\r\n        nftListOfOwner[ownerAddress][lastNftIndex ++] = tokenId;\r\n        nftIndexOfOwner[ownerAddress][tokenId] = lastNftIndex;\r\n        nftFromCollection[lastNftIndexOfCollection] = tokenId;\r\n        nftIndexInCollection[tokenId] = lastNftIndexOfCollection;\r\n        nftOwner[tokenId] = ownerAddress;\r\n        uriOf[tokenId] = metadataURI;\r\n        nftCountOfOwner[ownerAddress] ++;\r\n        lastNftIndexOfOwner[ownerAddress] ++;\r\n        totalSupplyCounter ++;\r\n        lastNftIndexOfCollection ++;\r\n        uint codeSize;\r\n        emit Transfer(address(0x0), ownerAddress, tokenId);\r\n        assembly{\r\n            codeSize := extcodesize(ownerAddress)\r\n        }\r\n        if(codeSize > 0){\r\n            recipientContractAddress = ownerAddress;\r\n            bytes4 functionSelector = this.onERC721Received(address(0x0), address(0x0), tokenId, \"\");\r\n            require(functionSelector == bytes4(keccak256(\"onERC721Received(address,address,uint256,bytes)\")), \"04\");\r\n            // 04: The recipient contract couldn't handle the NFT receipt!\r\n        }\r\n        return true;\r\n    }\r\n\r\n    function burn(uint256 tokenId) external returns (bool){\r\n        uint nftIndex = nftIndexOfOwner[msg.sender][tokenId];\r\n        nftListOfOwner[msg.sender][nftIndex] = 0;\r\n        nftOwner[tokenId] = address(0x0);\r\n        uriOf[tokenId] = \"\";\r\n        approvedOf[tokenId] = address(0x0);\r\n        nftCountOfOwner[msg.sender] --;\r\n        nftIndexInCollection[tokenId] = lastNftIndexOfCollection;\r\n        nftFromCollection[lastNftIndexOfCollection] = 0;\r\n        totalSupplyCounter --;\r\n        emit Transfer(msg.sender, address(0x0), tokenId);\r\n        return true;\r\n    }\r\n\r\n    function totalSupply() external override view returns (uint256){\r\n        return totalSupplyCounter;\r\n    }\r\n\r\n    function tokenURI(uint256 _tokenId) external override view returns (string memory){\r\n        return string(uriOf[_tokenId]);\r\n    }\r\n\r\n    function tokenByIndex(uint256 _index) external override view returns (uint256){\r\n        require(_index <= lastNftIndexOfCollection, \"06\");\r\n        // 06: The NFT index is invalid!\r\n        return nftFromCollection[_index];\r\n    }\r\n\r\n    function balanceOf(address _owner) external override view returns (uint256){\r\n        require(_owner != address(0x0), \"01\");\r\n        // 01: Zero address is not valid!\r\n        return nftCountOfOwner[_owner];\r\n    }\r\n\r\n    function tokenOfOwnerByIndex(address _owner, uint256 _index) external override view returns (uint256){\r\n        require(_index <= nftCountOfOwner[_owner], \"06\");\r\n        return nftListOfOwner[_owner][_index];\r\n    }\r\n\r\n    function ownerOf(uint256 _tokenId) external override view returns (address){\r\n        require(nftOwner[_tokenId] != address(0x0), \"02\");\r\n        // 02: The token is invalid!\r\n        return (nftOwner[_tokenId]);\r\n    }\r\n\r\n    function collectionRename(bytes calldata newName, bytes calldata newSymbol) external {\r\n        require(collectionOwner == msg.sender, \"08\");\r\n        // 08: Only collection owner can rename it!\r\n        emit CollectionRename(collectionName, newName, collectionSymbol, newSymbol);\r\n        collectionName = newName;\r\n        collectionSymbol = newSymbol;\r\n    }\r\n\r\n    function safeTransferFrom(address _from, address _to, uint256 _tokenId, bytes calldata data) external override justTransfer(_from, _to, _tokenId) payable{    \r\n        // Ensure if the recipient is a contract it handles the NFT receipt:\r\n        uint codeSize;\r\n        address operator = msg.sender;\r\n        assembly{\r\n            codeSize := extcodesize(_to)\r\n        }\r\n        if(codeSize > 0){\r\n            recipientContractAddress = _to;\r\n            bytes4 functionSelector = this.onERC721Received(operator, _from, _tokenId, data);\r\n            require(functionSelector == bytes4(keccak256(\"onERC721Received(address,address,uint256,bytes)\")), \"04\");\r\n            // 04: The recipient contract couldn't handle the NFT receipt!\r\n        }\r\n    }\r\n\r\n    function safeTransferFrom(address _from, address _to, uint256 _tokenId) external override payable{\r\n        this.safeTransferFrom(_from, _to, _tokenId, \"\");\r\n    }\r\n\r\n    function transferFrom(address _from, address _to, uint256 _tokenId) external override justTransfer(_from, _to, _tokenId) payable{\r\n        emit Transfer(_from, _to, _tokenId);\r\n        emit Approval(msg.sender, address(0x0), _tokenId);\r\n    }\r\n\r\n    function approve(address _approved, uint256 _tokenId) external override payable{\r\n        require(nftOwner[_tokenId] == msg.sender, \"05\");\r\n        // 05: The account is not authorized!;\r\n        approvedOf[_tokenId] = _approved;\r\n        emit Approval(msg.sender, _approved, _tokenId);\r\n    }\r\n\r\n    function s(address _operator, bool _approved) external override{\r\n        approvedForAllNFTsOf[msg.sender][_operator] = _approved;\r\n        emit ApprovalForAll(msg.sender, _operator, _approved);\r\n    }\r\n\r\n    function getApproved(uint256 _tokenId) external override view returns (address){\r\n        return approvedOf[_tokenId];\r\n    }\r\n\r\n    function isApprovedForAll(address _owner, address _operator) external override view returns (bool){\r\n        return approvedForAllNFTsOf[_owner][_operator];\r\n    }\r\n\r\n    function interfaceIdGenerator() private pure returns(bytes4, bytes4, bytes4, bytes4, bytes4){\r\n        bytes4 erc721TokenReceiver = this.onERC721Received.selector;\r\n        bytes4 erc165 = this.supportsInterface.selector;\r\n\r\n            bytes4 erc721Id = bytes4(keccak256(\"balanceOf(address)\")) ^\r\n                            bytes4(keccak256(\"ownerOf(uint256)\")) ^\r\n                            bytes4(keccak256(\"safeTransferFrom(address,address,uint256,bytes)\")) ^\r\n                            bytes4(keccak256(\"safeTransferFrom(address,address,uint256)\")) ^\r\n                            bytes4(keccak256(\"transferFrom(address,address,uint256)\")) ^\r\n                            bytes4(keccak256(\"approve(address,uint256)\")) ^\r\n                            bytes4(keccak256(\"s(address,bool)\")) ^\r\n                            bytes4(keccak256(\"getApproved(uint256)\")) ^\r\n                            bytes4(keccak256(\"isApprovedForAll(address,address)\"));\r\n            bytes4 erc721MetadataId = this.name.selector ^ this.symbol.selector ^ this.tokenURI.selector;\r\n            bytes4 erc721EnumerableId = this.totalSupply.selector ^ this.tokenByIndex.selector ^ this.tokenOfOwnerByIndex.selector;\r\n            return (erc721TokenReceiver, erc165, erc721Id, erc721MetadataId, erc721EnumerableId);\r\n    }\r\n    function onERC721Received(address _operator, address _from, uint256 _tokenId, bytes calldata _data) external override returns(bytes4){\r\n        IERC721TokenReceiver recipientContract = IERC721TokenReceiver(recipientContractAddress);\r\n        return recipientContract.onERC721Received(_operator, _from, _tokenId, _data);\r\n    }\r\n}",
  "sourcePath": "E:\\smartContract\\contracts\\erc721.sol",
  "compiler": {
    "name": "solc",
    "version": "0.8.0+commit.c7dfd78e.Emscripten.clang"
  },
  "schemaVersion": "3.4.16",
  "updatedAt": "2024-06-24T09:11:53.627Z",
  "networkType": "ethereum",
  "devdoc": {
    "kind": "dev",
    "methods": {},
    "version": 1
  },
  "userdoc": {
    "kind": "user",
    "methods": {},
    "version": 1
  }
}