{
  "contractName": "ERC721",
  "abi": [
    {
      "inputs": [
        {
          "internalType": "bytes",
          "name": "nameOfCollection",
          "type": "bytes"
        },
        {
          "internalType": "bytes",
          "name": "symbolOfCollection",
          "type": "bytes"
        }
      ],
      "payable": false,
      "stateMutability": "nonpayable",
      "type": "constructor"
    },
    {
      "anonymous": false,
      "inputs": [
        {
          "indexed": true,
          "internalType": "address",
          "name": "_owner",
          "type": "address"
        },
        {
          "indexed": true,
          "internalType": "address",
          "name": "_approved",
          "type": "address"
        },
        {
          "indexed": true,
          "internalType": "uint256",
          "name": "_tokenId",
          "type": "uint256"
        }
      ],
      "name": "Approval",
      "type": "event"
    },
    {
      "anonymous": false,
      "inputs": [
        {
          "indexed": true,
          "internalType": "address",
          "name": "_owner",
          "type": "address"
        },
        {
          "indexed": true,
          "internalType": "address",
          "name": "_operator",
          "type": "address"
        },
        {
          "indexed": false,
          "internalType": "bool",
          "name": "_approved",
          "type": "bool"
        }
      ],
      "name": "ApprovalForAll",
      "type": "event"
    },
    {
      "anonymous": false,
      "inputs": [
        {
          "indexed": false,
          "internalType": "address",
          "name": "ownerOfCollection",
          "type": "address"
        },
        {
          "indexed": false,
          "internalType": "bytes",
          "name": "nameOfCollection",
          "type": "bytes"
        },
        {
          "indexed": false,
          "internalType": "bytes",
          "name": "symbolOfCollection",
          "type": "bytes"
        }
      ],
      "name": "CollectionCreate",
      "type": "event"
    },
    {
      "anonymous": false,
      "inputs": [
        {
          "indexed": false,
          "internalType": "bytes",
          "name": "previousName",
          "type": "bytes"
        },
        {
          "indexed": false,
          "internalType": "bytes",
          "name": "currentName",
          "type": "bytes"
        },
        {
          "indexed": false,
          "internalType": "bytes",
          "name": "previousSymbol",
          "type": "bytes"
        },
        {
          "indexed": false,
          "internalType": "bytes",
          "name": "currentSymbol",
          "type": "bytes"
        }
      ],
      "name": "CollectionRename",
      "type": "event"
    },
    {
      "anonymous": false,
      "inputs": [
        {
          "indexed": true,
          "internalType": "address",
          "name": "_from",
          "type": "address"
        },
        {
          "indexed": true,
          "internalType": "address",
          "name": "_to",
          "type": "address"
        },
        {
          "indexed": true,
          "internalType": "uint256",
          "name": "_tokenId",
          "type": "uint256"
        }
      ],
      "name": "Transfer",
      "type": "event"
    },
    {
      "constant": true,
      "inputs": [],
      "name": "collectionName",
      "outputs": [
        {
          "internalType": "bytes",
          "name": "",
          "type": "bytes"
        }
      ],
      "payable": false,
      "stateMutability": "view",
      "type": "function"
    },
    {
      "constant": true,
      "inputs": [],
      "name": "collectionOwner",
      "outputs": [
        {
          "internalType": "address",
          "name": "",
          "type": "address"
        }
      ],
      "payable": false,
      "stateMutability": "view",
      "type": "function"
    },
    {
      "constant": true,
      "inputs": [],
      "name": "collectionSymbol",
      "outputs": [
        {
          "internalType": "bytes",
          "name": "",
          "type": "bytes"
        }
      ],
      "payable": false,
      "stateMutability": "view",
      "type": "function"
    },
    {
      "constant": true,
      "inputs": [],
      "name": "lastNftIndexOfCollection",
      "outputs": [
        {
          "internalType": "uint256",
          "name": "",
          "type": "uint256"
        }
      ],
      "payable": false,
      "stateMutability": "view",
      "type": "function"
    },
    {
      "constant": true,
      "inputs": [],
      "name": "totalSupplyCounter",
      "outputs": [
        {
          "internalType": "uint256",
          "name": "",
          "type": "uint256"
        }
      ],
      "payable": false,
      "stateMutability": "view",
      "type": "function"
    },
    {
      "constant": true,
      "inputs": [
        {
          "internalType": "bytes4",
          "name": "interfaceID",
          "type": "bytes4"
        }
      ],
      "name": "supportsInterface",
      "outputs": [
        {
          "internalType": "bool",
          "name": "",
          "type": "bool"
        }
      ],
      "payable": false,
      "stateMutability": "view",
      "type": "function"
    },
    {
      "constant": true,
      "inputs": [],
      "name": "name",
      "outputs": [
        {
          "internalType": "string",
          "name": "",
          "type": "string"
        }
      ],
      "payable": false,
      "stateMutability": "view",
      "type": "function"
    },
    {
      "constant": true,
      "inputs": [],
      "name": "symbol",
      "outputs": [
        {
          "internalType": "string",
          "name": "",
          "type": "string"
        }
      ],
      "payable": false,
      "stateMutability": "view",
      "type": "function"
    },
    {
      "constant": false,
      "inputs": [
        {
          "internalType": "address",
          "name": "ownerAddress",
          "type": "address"
        },
        {
          "internalType": "uint256",
          "name": "tokenId",
          "type": "uint256"
        },
        {
          "internalType": "bytes",
          "name": "metadataURI",
          "type": "bytes"
        }
      ],
      "name": "mint",
      "outputs": [
        {
          "internalType": "bool",
          "name": "",
          "type": "bool"
        }
      ],
      "payable": false,
      "stateMutability": "nonpayable",
      "type": "function"
    },
    {
      "constant": false,
      "inputs": [
        {
          "internalType": "uint256",
          "name": "tokenId",
          "type": "uint256"
        }
      ],
      "name": "burn",
      "outputs": [
        {
          "internalType": "bool",
          "name": "",
          "type": "bool"
        }
      ],
      "payable": false,
      "stateMutability": "nonpayable",
      "type": "function"
    },
    {
      "constant": true,
      "inputs": [],
      "name": "totalSupply",
      "outputs": [
        {
          "internalType": "uint256",
          "name": "",
          "type": "uint256"
        }
      ],
      "payable": false,
      "stateMutability": "view",
      "type": "function"
    },
    {
      "constant": true,
      "inputs": [
        {
          "internalType": "uint256",
          "name": "_tokenId",
          "type": "uint256"
        }
      ],
      "name": "tokenURI",
      "outputs": [
        {
          "internalType": "string",
          "name": "",
          "type": "string"
        }
      ],
      "payable": false,
      "stateMutability": "view",
      "type": "function"
    },
    {
      "constant": true,
      "inputs": [
        {
          "internalType": "uint256",
          "name": "_index",
          "type": "uint256"
        }
      ],
      "name": "tokenByIndex",
      "outputs": [
        {
          "internalType": "uint256",
          "name": "",
          "type": "uint256"
        }
      ],
      "payable": false,
      "stateMutability": "view",
      "type": "function"
    },
    {
      "constant": true,
      "inputs": [
        {
          "internalType": "address",
          "name": "_owner",
          "type": "address"
        }
      ],
      "name": "balanceOf",
      "outputs": [
        {
          "internalType": "uint256",
          "name": "",
          "type": "uint256"
        }
      ],
      "payable": false,
      "stateMutability": "view",
      "type": "function"
    },
    {
      "constant": true,
      "inputs": [
        {
          "internalType": "address",
          "name": "_owner",
          "type": "address"
        },
        {
          "internalType": "uint256",
          "name": "_index",
          "type": "uint256"
        }
      ],
      "name": "tokenOfOwnerByIndex",
      "outputs": [
        {
          "internalType": "uint256",
          "name": "",
          "type": "uint256"
        }
      ],
      "payable": false,
      "stateMutability": "view",
      "type": "function"
    },
    {
      "constant": true,
      "inputs": [
        {
          "internalType": "uint256",
          "name": "_tokenId",
          "type": "uint256"
        }
      ],
      "name": "ownerOf",
      "outputs": [
        {
          "internalType": "address",
          "name": "",
          "type": "address"
        }
      ],
      "payable": false,
      "stateMutability": "view",
      "type": "function"
    },
    {
      "constant": false,
      "inputs": [
        {
          "internalType": "bytes",
          "name": "newName",
          "type": "bytes"
        },
        {
          "internalType": "bytes",
          "name": "newSymbol",
          "type": "bytes"
        }
      ],
      "name": "collectionRename",
      "outputs": [],
      "payable": false,
      "stateMutability": "nonpayable",
      "type": "function"
    },
    {
      "constant": false,
      "inputs": [
        {
          "internalType": "address",
          "name": "_from",
          "type": "address"
        },
        {
          "internalType": "address",
          "name": "_to",
          "type": "address"
        },
        {
          "internalType": "uint256",
          "name": "_tokenId",
          "type": "uint256"
        }
      ],
      "name": "safeTransferFrom",
      "outputs": [],
      "payable": true,
      "stateMutability": "payable",
      "type": "function"
    },
    {
      "constant": false,
      "inputs": [
        {
          "internalType": "address",
          "name": "_from",
          "type": "address"
        },
        {
          "internalType": "address",
          "name": "_to",
          "type": "address"
        },
        {
          "internalType": "uint256",
          "name": "_tokenId",
          "type": "uint256"
        },
        {
          "internalType": "bytes",
          "name": "data",
          "type": "bytes"
        }
      ],
      "name": "safeTransferFrom",
      "outputs": [],
      "payable": true,
      "stateMutability": "payable",
      "type": "function"
    },
    {
      "constant": false,
      "inputs": [
        {
          "internalType": "address",
          "name": "_from",
          "type": "address"
        },
        {
          "internalType": "address",
          "name": "_to",
          "type": "address"
        },
        {
          "internalType": "uint256",
          "name": "_tokenId",
          "type": "uint256"
        }
      ],
      "name": "transferFrom",
      "outputs": [],
      "payable": true,
      "stateMutability": "payable",
      "type": "function"
    },
    {
      "constant": false,
      "inputs": [
        {
          "internalType": "address",
          "name": "_approved",
          "type": "address"
        },
        {
          "internalType": "uint256",
          "name": "_tokenId",
          "type": "uint256"
        }
      ],
      "name": "approve",
      "outputs": [],
      "payable": true,
      "stateMutability": "payable",
      "type": "function"
    },
    {
      "constant": false,
      "inputs": [
        {
          "internalType": "address",
          "name": "_operator",
          "type": "address"
        },
        {
          "internalType": "bool",
          "name": "_approved",
          "type": "bool"
        }
      ],
      "name": "setApprovalForAll",
      "outputs": [],
      "payable": false,
      "stateMutability": "nonpayable",
      "type": "function"
    },
    {
      "constant": true,
      "inputs": [
        {
          "internalType": "uint256",
          "name": "_tokenId",
          "type": "uint256"
        }
      ],
      "name": "getApproved",
      "outputs": [
        {
          "internalType": "address",
          "name": "",
          "type": "address"
        }
      ],
      "payable": false,
      "stateMutability": "view",
      "type": "function"
    },
    {
      "constant": true,
      "inputs": [
        {
          "internalType": "address",
          "name": "_owner",
          "type": "address"
        },
        {
          "internalType": "address",
          "name": "_operator",
          "type": "address"
        }
      ],
      "name": "isApprovedForAll",
      "outputs": [
        {
          "internalType": "bool",
          "name": "",
          "type": "bool"
        }
      ],
      "payable": false,
      "stateMutability": "view",
      "type": "function"
    },
    {
      "constant": false,
      "inputs": [
        {
          "internalType": "address",
          "name": "_operator",
          "type": "address"
        },
        {
          "internalType": "address",
          "name": "_from",
          "type": "address"
        },
        {
          "internalType": "uint256",
          "name": "_tokenId",
          "type": "uint256"
        },
        {
          "internalType": "bytes",
          "name": "_data",
          "type": "bytes"
        }
      ],
      "name": "onERC721Received",
      "outputs": [
        {
          "internalType": "bytes4",
          "name": "",
          "type": "bytes4"
        }
      ],
      "payable": false,
      "stateMutability": "nonpayable",
      "type": "function"
    }
  ],
  "bytecode": "0x60806040523480156200001157600080fd5b506040516200223e3803806200223e833981810160405260408110156200003757600080fd5b81019080805160405193929190846401000000008211156200005857600080fd5b9083019060208201858111156200006e57600080fd5b82516401000000008111828201881017156200008957600080fd5b82525081516020918201929091019080838360005b83811015620000b85781810151838201526020016200009e565b50505050905090810190601f168015620000e65780820380516001836020036101000a031916815260200191505b50604052602001805160405193929190846401000000008211156200010a57600080fd5b9083019060208201858111156200012057600080fd5b82516401000000008111828201881017156200013b57600080fd5b82525081516020918201929091019080838360005b838110156200016a57818101518382015260200162000150565b50505050905090810190601f168015620001985780820380516001836020036101000a031916815260200191505b506040525050600080546001600160a01b03191633179055508151620001c6906001906020850190620005bc565b508051620001dc906002906020840190620005bc565b5060008080620001f46001600160e01b036200040416565b600660209081527fb66f683815876ebab61acbca8837c67dcf18be5c574bb0f6d4b6cfa43c4177c08054600160ff1991821681179092557f477a984de5936bcb02475f64e0ea676103106ac0785c67bf7e9e846450b51ef680548216831790557fffffffff0000000000000000000000000000000000000000000000000000000086811660009081526040808220805485168617905587831682528082208054851686179055918616815281812080549093168417909255905481516001600160a01b03909116808252606094820185815284546002610100828816150260001901909116819004968401879052989b509699509497507fd9f54822c481f9bbb4b5ebbba6af6683ca4509010aff7fb8ecda36301f3989d0969495929493909291830190608084019086908015620003705780601f10620003445761010080835404028352916020019162000370565b820191906000526020600020905b8154815290600101906020018083116200035257829003601f168201915b5050838103825284546002600019610100600184161502019091160480825260209091019085908015620003e85780601f10620003bc57610100808354040283529160200191620003e8565b820191906000526020600020905b815481529060010190602001808311620003ca57829003601f168201915b50509550505050505060405180910390a1505050505062000661565b60008060008060405180806200221d60219139604080519182900360210182207f676574417070726f7665642875696e7432353629000000000000000000000000835281519283900360140183207f736574417070726f76616c466f72416c6c28616464726573732c626f6f6c29008452825193849003601f0184207f617070726f766528616464726573732c75696e743235362900000000000000008552925193849003601801842091945092806025620021a082396040519081900360250181209150806029620021c58239604051908190036029018120915080602f620021ee82396040805191829003602f0182207f6f776e65724f662875696e743235362900000000000000000000000000000000835281519283900360100183207f62616c616e63654f6628616464726573732900000000000000000000000000008452915192839003601201909220181891909118919091189190911891909118919091189190911894507f5b5e139f0000000000000000000000000000000000000000000000000000000093507f780e9d630000000000000000000000000000000000000000000000000000000092505050909192565b828054600181600116156101000203166002900490600052602060002090601f016020900481019282601f10620005ff57805160ff19168380011785556200062f565b828001600101855582156200062f579182015b828111156200062f57825182559160200191906001019062000612565b506200063d92915062000641565b5090565b6200065e91905b808211156200063d576000815560010162000648565b90565b611b2f80620006716000396000f3fe6080604052600436106101665760003560e01c806342966c68116100d1578063a22cb4651161008a578063df727d3b11610064578063df727d3b14610773578063e5326ab114610788578063e985e9c51461079d578063eb6faa09146107d857610166565b8063a22cb46514610680578063b88d4fde146106bb578063c87b56dd1461074957610166565b806342966c681461052a5780634f6ccce7146105545780636352211e1461057e57806370a08231146105a857806394d008ef146105db57806395d89b411461066b57610166565b80631e642a04116101235780631e642a0414610390578063204a875a1461045b57806323b872dd146104705780632f39352a146104a65780632f745c59146104bb57806342842e0e146104f457610166565b806301ffc9a71461016b57806306fdde03146101b3578063081812fc1461023d578063095ea7b314610283578063150b7a02146102b157806318160ddd14610369575b600080fd5b34801561017757600080fd5b5061019f6004803603602081101561018e57600080fd5b50356001600160e01b0319166107ed565b604080519115158252519081900360200190f35b3480156101bf57600080fd5b506101c861080c565b6040805160208082528351818301528351919283929083019185019080838360005b838110156102025781810151838201526020016101ea565b50505050905090810190601f16801561022f5780820380516001836020036101000a031916815260200191505b509250505060405180910390f35b34801561024957600080fd5b506102676004803603602081101561026057600080fd5b50356108a2565b604080516001600160a01b039092168252519081900360200190f35b6102af6004803603604081101561029957600080fd5b506001600160a01b0381351690602001356108bd565b005b3480156102bd57600080fd5b5061034c600480360360808110156102d457600080fd5b6001600160a01b03823581169260208101359091169160408201359190810190608081016060820135600160201b81111561030e57600080fd5b82018360208201111561032057600080fd5b803590602001918460018302840111600160201b8311171561034157600080fd5b509092509050610966565b604080516001600160e01b03199092168252519081900360200190f35b34801561037557600080fd5b5061037e610a3b565b60408051918252519081900360200190f35b34801561039c57600080fd5b506102af600480360360408110156103b357600080fd5b810190602081018135600160201b8111156103cd57600080fd5b8201836020820111156103df57600080fd5b803590602001918460018302840111600160201b8311171561040057600080fd5b919390929091602081019035600160201b81111561041d57600080fd5b82018360208201111561042f57600080fd5b803590602001918460018302840111600160201b8311171561045057600080fd5b509092509050610a41565b34801561046757600080fd5b5061037e610c34565b6102af6004803603606081101561048657600080fd5b506001600160a01b03813581169160208101359091169060400135610c3a565b3480156104b257600080fd5b506101c8610e32565b3480156104c757600080fd5b5061037e600480360360408110156104de57600080fd5b506001600160a01b038135169060200135610ebd565b6102af6004803603606081101561050a57600080fd5b506001600160a01b03813581169160208101359091169060400135610f38565b34801561053657600080fd5b5061019f6004803603602081101561054d57600080fd5b5035610fb7565b34801561056057600080fd5b5061037e6004803603602081101561057757600080fd5b50356110a2565b34801561058a57600080fd5b50610267600480360360208110156105a157600080fd5b50356110f3565b3480156105b457600080fd5b5061037e600480360360208110156105cb57600080fd5b50356001600160a01b031661115d565b3480156105e757600080fd5b5061019f600480360360608110156105fe57600080fd5b6001600160a01b0382351691602081013591810190606081016040820135600160201b81111561062d57600080fd5b82018360208201111561063f57600080fd5b803590602001918460018302840111600160201b8311171561066057600080fd5b5090925090506111bb565b34801561067757600080fd5b506101c861141d565b34801561068c57600080fd5b506102af600480360360408110156106a357600080fd5b506001600160a01b038135169060200135151561147b565b6102af600480360360808110156106d157600080fd5b6001600160a01b03823581169260208101359091169160408201359190810190608081016060820135600160201b81111561070b57600080fd5b82018360208201111561071d57600080fd5b803590602001918460018302840111600160201b8311171561073e57600080fd5b5090925090506114e9565b34801561075557600080fd5b506101c86004803603602081101561076c57600080fd5b5035611867565b34801561077f57600080fd5b50610267611908565b34801561079457600080fd5b506101c8611917565b3480156107a957600080fd5b5061019f600480360360408110156107c057600080fd5b506001600160a01b0381358116916020013516611971565b3480156107e457600080fd5b5061037e61199f565b6001600160e01b03191660009081526006602052604090205460ff1690565b60018054604080516020601f600260001961010087891615020190951694909404938401819004810282018101909252828152606093909290918301828280156108975780601f1061086c57610100808354040283529160200191610897565b820191906000526020600020905b81548152906001019060200180831161087a57829003601f168201915b505050505090505b90565b6000908152600d60205260409020546001600160a01b031690565b6000818152600b60205260409020546001600160a01b0316331461090d576040805162461bcd60e51b8152602060048201526002602482015261303560f01b604482015290519081900360640190fd5b6000818152600d602052604080822080546001600160a01b0319166001600160a01b0386169081179091559051839233917f8c5be1e5ebec7d5bd14f71427d1e84f3dd0314c0f7b2291e5b200ac8c7c3b9259190a45050565b600354604051630a85bd0160e11b81526001600160a01b0387811660048301908152878216602484015260448301879052608060648401908152608484018690526000949290921692839263150b7a02928b928b928b928b928b929060a401848480828437600081840152601f19601f8201169050808301925050509650505050505050602060405180830381600087803b158015610a0457600080fd5b505af1158015610a18573d6000803e3d6000fd5b505050506040513d6020811015610a2e57600080fd5b5051979650505050505050565b60045490565b6000546001600160a01b03163314610a85576040805162461bcd60e51b8152602060048201526002602482015261060760f31b604482015290519081900360640190fd5b7f4460005c4928761c85b469fc4cf57c38f2dcfdbb7783fe61282bfbf16fcc5c796001858560028686604051808060200180602001806020018060200185810385528b818154600181600116156101000203166002900481526020019150805460018160011615610100020316600290048015610b435780601f10610b1857610100808354040283529160200191610b43565b820191906000526020600020905b815481529060010190602001808311610b2657829003601f168201915b505085810384528981526020018a8a80828437600083820152601f01601f191690910186810384528954600260001961010060018416150201909116048082526020909101915089908015610bd95780601f10610bae57610100808354040283529160200191610bd9565b820191906000526020600020905b815481529060010190602001808311610bbc57829003601f168201915b50508581038252868152602001878780828437600083820152604051601f909101601f19169092018290039c50909a5050505050505050505050a1610c20600185856119a5565b50610c2d600283836119a5565b5050505050565b60045481565b6000818152600b60205260409020548390839083906001600160a01b031615801590610cca57506000818152600b60205260409020546001600160a01b0316321480610c9c57506000818152600d60205260409020546001600160a01b031632145b80610cca57506001600160a01b0383166000908152600e6020908152604080832032845290915290205460ff165b8015610cef57506000818152600b60205260409020546001600160a01b038481169116145b8015610d0357506001600160a01b03821615155b610d39576040805162461bcd60e51b8152602060048201526002602482015261303360f01b604482015290519081900360640190fd5b6000818152600b6020908152604080832080546001600160a01b0319166001600160a01b038781169182179092558782168086526007855283862080546000190190558186528386208054600190810190915581875260098652848720888852865284872054838852600a8752858820549288526008808852868920828a52885286892089905593885292865284872082885290955283862087905592519094929093019288928a8316928c1691600080516020611adb8339815191529190a4604051869060009033907f8c5be1e5ebec7d5bd14f71427d1e84f3dd0314c0f7b2291e5b200ac8c7c3b925908390a45050505050505050565b6002805460408051602060018416156101000260001901909316849004601f81018490048402820184019092528181529291830182828015610eb55780601f10610e8a57610100808354040283529160200191610eb5565b820191906000526020600020905b815481529060010190602001808311610e9857829003601f168201915b505050505081565b6001600160a01b038216600090815260076020526040812054821115610f0f576040805162461bcd60e51b8152602060048201526002602482015261181b60f11b604482015290519081900360640190fd5b506001600160a01b03919091166000908152600860209081526040808320938352929052205490565b60408051635c46a7ef60e11b81526001600160a01b0385811660048301528416602482015260448101839052608060648201526000608482018190529151309263b88d4fde9260c4808201939182900301818387803b158015610f9a57600080fd5b505af1158015610fae573d6000803e3d6000fd5b50505050505050565b336000818152600960209081526040808320858452825280832054938352600882528083208484528252808320839055848352600b825280832080546001600160a01b03191690558051808301808352848252868552600c90935290832090519293926110249290611a23565b506000838152600d6020908152604080832080546001600160a01b031916905533808452600783528184208054600019908101909155600554888652601085528386208190558552600f909352818420849055600480549093019092555185929190600080516020611adb833981519152908390a450600192915050565b60006005548211156110e0576040805162461bcd60e51b8152602060048201526002602482015261181b60f11b604482015290519081900360640190fd5b506000908152600f602052604090205490565b6000818152600b60205260408120546001600160a01b0316611141576040805162461bcd60e51b8152602060048201526002602482015261181960f11b604482015290519081900360640190fd5b506000908152600b60205260409020546001600160a01b031690565b60006001600160a01b03821661119f576040805162461bcd60e51b8152602060048201526002602482015261303160f01b604482015290519081900360640190fd5b506001600160a01b031660009081526007602052604090205490565b600080546001600160a01b03163314611200576040805162461bcd60e51b8152602060048201526002602482015261303760f01b604482015290519081900360640190fd5b6001600160a01b0385166000818152600a6020908152604080832054600883528184208185528352818420899055848452600983528184208985528352818420600190910190819055600580548552600f84528285208a9055548985526010845282852055600b835281842080546001600160a01b031916909517909455600c90915290206112909085856119a5565b506001600160a01b038616600090815260076020908152604080832080546001908101909155600a9092529091208054820190556004805482019055600580549091019055853b80156113ea57600380546001600160a01b0319166001600160a01b03891617905560408051630a85bd0160e11b8152600060048201819052602482018190526044820189905260806064830152608482018190529151309163150b7a029160c480830192602092919082900301818787803b15801561135557600080fd5b505af1158015611369573d6000803e3d6000fd5b505050506040513d602081101561137f57600080fd5b505160405190915080602f611aac8239602f01905060405180910390206001600160e01b031916816001600160e01b031916146113e8576040805162461bcd60e51b81526020600482015260026024820152610c0d60f21b604482015290519081900360640190fd5b505b60405186906001600160a01b03891690600090600080516020611adb833981519152908290a45060019695505050505050565b60028054604080516020601f60001961010060018716150201909416859004938401819004810282018101909252828152606093909290918301828280156108975780601f1061086c57610100808354040283529160200191610897565b336000818152600e602090815260408083206001600160a01b03871680855290835292819020805460ff1916861515908117909155815190815290519293927f17307eab39ab6107e8899845ad3d59bd9653f200f220920489ca2b5937696c31929181900390910190a35050565b6000838152600b60205260409020548590859085906001600160a01b03161580159061157957506000818152600b60205260409020546001600160a01b031632148061154b57506000818152600d60205260409020546001600160a01b031632145b8061157957506001600160a01b0383166000908152600e6020908152604080832032845290915290205460ff165b801561159e57506000818152600b60205260409020546001600160a01b038481169116145b80156115b257506001600160a01b03821615155b6115e8576040805162461bcd60e51b8152602060048201526002602482015261303360f01b604482015290519081900360640190fd5b6000818152600b6020908152604080832080546001600160a01b0319166001600160a01b038781169182179092559087168085526007845282852080546000190190558185528285208054600190810190915581865260098552838620878752855283862054838752600a865284872054928752600880875285882082895287528588208890559387529285528386208287529094529190932084905501883b3381156117fb578a600360006101000a8154816001600160a01b0302191690836001600160a01b031602179055506000306001600160a01b031663150b7a02838f8e8e8e6040518663ffffffff1660e01b815260040180866001600160a01b03166001600160a01b03168152602001856001600160a01b03166001600160a01b03168152602001848152602001806020018281038252848482818152602001925080828437600081840152601f19601f8201169050808301925050509650505050505050602060405180830381600087803b15801561176657600080fd5b505af115801561177a573d6000803e3d6000fd5b505050506040513d602081101561179057600080fd5b505160405190915080602f611aac8239602f01905060405180910390206001600160e01b031916816001600160e01b031916146117f9576040805162461bcd60e51b81526020600482015260026024820152610c0d60f21b604482015290519081900360640190fd5b505b898b6001600160a01b03168d6001600160a01b0316600080516020611adb83398151915260405160405180910390a46040518a9060009033907f8c5be1e5ebec7d5bd14f71427d1e84f3dd0314c0f7b2291e5b200ac8c7c3b925908390a4505050505050505050505050565b6000818152600c602090815260409182902080548351601f60026000196101006001861615020190931692909204918201849004840281018401909452808452606093928301828280156118fc5780601f106118d1576101008083540402835291602001916118fc565b820191906000526020600020905b8154815290600101906020018083116118df57829003601f168201915b50505050509050919050565b6000546001600160a01b031681565b60018054604080516020600284861615610100026000190190941693909304601f81018490048402820184019092528181529291830182828015610eb55780601f10610e8a57610100808354040283529160200191610eb5565b6001600160a01b039182166000908152600e6020908152604080832093909416825291909152205460ff1690565b60055481565b828054600181600116156101000203166002900490600052602060002090601f016020900481019282601f106119e65782800160ff19823516178555611a13565b82800160010185558215611a13579182015b82811115611a135782358255916020019190600101906119f8565b50611a1f929150611a91565b5090565b828054600181600116156101000203166002900490600052602060002090601f016020900481019282601f10611a6457805160ff1916838001178555611a13565b82800160010185558215611a13579182015b82811115611a13578251825591602001919060010190611a76565b61089f91905b80821115611a1f5760008155600101611a9756fe6f6e455243373231526563656976656428616464726573732c616464726573732c75696e743235362c627974657329ddf252ad1be2c89b69c2b068fc378daa952ba7f163c4a11628f55a4df523b3efa265627a7a7231582064e9e763f3f57b4a4dd5a41668831c2115ea53e54f5726a3c1bd954ebf1823c164736f6c634300050c00327472616e7366657246726f6d28616464726573732c616464726573732c75696e7432353629736166655472616e7366657246726f6d28616464726573732c616464726573732c75696e7432353629736166655472616e7366657246726f6d28616464726573732c616464726573732c75696e743235362c6279746573296973417070726f766564466f72416c6c28616464726573732c6164647265737329",
  "source": "// SPDX-License-Identifier: MIT\r\n\r\npragma solidity ^0.5.12;\r\n\r\n// Interfaces\r\ninterface IERC721TokenReceiver {\r\n    function onERC721Received(address _operator, address _from, uint256 _tokenId, bytes calldata _data) external returns(bytes4);\r\n}\r\n\r\ninterface IERC165 {\r\n    function supportsInterface(bytes4 interfaceID) external view returns (bool);\r\n}\r\n\r\ninterface IERC721 {\r\n    \r\n    event Transfer(address indexed _from, address indexed _to, uint256 indexed _tokenId);\r\n    event Approval(address indexed _owner, address indexed _approved, uint256 indexed _tokenId);\r\n    event ApprovalForAll(address indexed _owner, address indexed _operator, bool _approved);\r\n\r\n    function balanceOf(address _owner) external view returns (uint256);\r\n    function ownerOf(uint256 _tokenId) external view returns (address);\r\n    function safeTransferFrom(address _from, address _to, uint256 _tokenId, bytes calldata data) external payable;\r\n    function safeTransferFrom(address _from, address _to, uint256 _tokenId) external payable;\r\n    function transferFrom(address _from, address _to, uint256 _tokenId) external payable;\r\n    function approve(address _approved, uint256 _tokenId) external payable;\r\n    function setApprovalForAll(address _operator, bool _approved) external;\r\n    function getApproved(uint256 _tokenId) external view returns (address);\r\n    function isApprovedForAll(address _owner, address _operator) external view returns (bool);\r\n}\r\n\r\ninterface IERC721Metadata {\r\n    function name() external view returns (string memory);\r\n    function symbol() external view returns (string memory);\r\n    function tokenURI(uint256 _tokenId) external view returns (string memory);\r\n}\r\n\r\ninterface ERC721Enumerable {\r\n    function totalSupply() external view returns (uint256);\r\n    function tokenByIndex(uint256 _index) external view returns (uint256);\r\n    function tokenOfOwnerByIndex(address _owner, uint256 _index) external view returns (uint256);\r\n}\r\n\r\n// Contract\r\ncontract ERC721 is IERC165, IERC721, IERC721TokenReceiver, IERC721Metadata, ERC721Enumerable {\r\n    //State variables\r\n    address public collectionOwner;\r\n    bytes public collectionName;\r\n    bytes public collectionSymbol;\r\n    address private recipientContractAddress;\r\n    uint public totalSupplyCounter;\r\n    uint public lastNftIndexOfCollection;\r\n\r\n    //Events\r\n    event CollectionCreate(address ownerOfCollection, bytes nameOfCollection, bytes symbolOfCollection);\r\n    event CollectionRename(bytes previousName, bytes currentName, bytes previousSymbol, bytes currentSymbol);\r\n\r\n    //Mappings\r\n    mapping(bytes4 => bool) private supportedInterfaces;\r\n    mapping(address => uint256) private nftCountOfOwner;\r\n    mapping(address => mapping(uint => uint256)) private nftListOfOwner;\r\n    mapping(address => mapping(uint256 => uint)) private nftIndexOfOwner;\r\n    mapping(address => uint) private lastNftIndexOfOwner;\r\n    mapping(uint256 => address) private nftOwner;\r\n    mapping(uint256 => bytes) private uriOf;\r\n    mapping(uint256 => address) private approvedOf;\r\n    mapping(address => mapping(address => bool)) private approvedForAllNFTsOf;\r\n    mapping(uint => uint256) private nftFromCollection;\r\n    mapping(uint256 => uint) private nftIndexInCollection;\r\n\r\n    //Modifiers\r\n    modifier justTransfer(address _from, address _to, uint256 _tokenId) {\r\n        require( nftOwner[_tokenId] != address(0x0) && (nftOwner[_tokenId] == tx.origin || approvedOf[_tokenId] == tx.origin || approvedForAllNFTsOf[_from][tx.origin]) && nftOwner[_tokenId] == _from && _to != address(0x0), \"03\");\r\n        // 03: At least one of input data is not valid!\r\n        // Transfer NFT:\r\n        nftOwner[_tokenId] = _to;\r\n        nftCountOfOwner[_from] --;\r\n        nftCountOfOwner[_to] ++;\r\n        uint nftIndex = nftIndexOfOwner[_from][_tokenId];\r\n        uint lastNftIndex = lastNftIndexOfOwner[_to];\r\n        nftListOfOwner[_from][nftIndex] = 0;\r\n        nftListOfOwner[_to][lastNftIndex ++] = _tokenId;\r\n        _;\r\n    }\r\n\r\n    //Functions\r\n    constructor(bytes memory nameOfCollection, bytes memory symbolOfCollection) public{\r\n        collectionOwner = msg.sender;\r\n        collectionName = nameOfCollection;\r\n        collectionSymbol = symbolOfCollection;\r\n        (bytes4 erc721Id, bytes4 erc721MetadataId, bytes4 erc721EnumerableId) = interfaceIdGenerator();\r\n        supportedInterfaces[this.onERC721Received.selector] = true;\r\n        supportedInterfaces[this.supportsInterface.selector] = true;\r\n        supportedInterfaces[erc721Id] = true;\r\n        supportedInterfaces[erc721MetadataId] = true;\r\n        supportedInterfaces[erc721EnumerableId] = true;\r\n        emit CollectionCreate(collectionOwner, collectionName, collectionSymbol);\r\n    }\r\n\r\n    function supportsInterface(bytes4 interfaceID) external view returns (bool){\r\n        return supportedInterfaces[interfaceID];\r\n    }\r\n\r\n    function name() external view returns (string memory){\r\n        return string(collectionName);\r\n    }\r\n\r\n    function symbol() external view returns (string memory){\r\n        return string(collectionSymbol);\r\n    }\r\n\r\n    function mint(address ownerAddress, uint256 tokenId, bytes calldata metadataURI) external returns (bool){\r\n        require(collectionOwner == msg.sender, \"07\");\r\n        // 07: Only the owner of collection can do this job!\r\n        uint lastNftIndex = lastNftIndexOfOwner[ownerAddress];\r\n        nftListOfOwner[ownerAddress][lastNftIndex ++] = tokenId;\r\n        nftIndexOfOwner[ownerAddress][tokenId] = lastNftIndex;\r\n        nftFromCollection[lastNftIndexOfCollection] = tokenId;\r\n        nftIndexInCollection[tokenId] = lastNftIndexOfCollection;\r\n        nftOwner[tokenId] = ownerAddress;\r\n        uriOf[tokenId] = metadataURI;\r\n        nftCountOfOwner[ownerAddress] ++;\r\n        lastNftIndexOfOwner[ownerAddress] ++;\r\n        totalSupplyCounter ++;\r\n        lastNftIndexOfCollection ++;\r\n        uint codeSize;\r\n        assembly{\r\n            codeSize := extcodesize(ownerAddress)\r\n        }\r\n        if(codeSize > 0){\r\n            recipientContractAddress = ownerAddress;\r\n            bytes4 functionSelector = this.onERC721Received(address(0x0), address(0x0), tokenId, \"\");\r\n            require(functionSelector == bytes4(keccak256(\"onERC721Received(address,address,uint256,bytes)\")), \"04\");\r\n            // 04: The recipient contract couldn't handle the NFT receipt!\r\n        }\r\n        emit Transfer(address(0x0), ownerAddress, tokenId);\r\n        return true;\r\n    }\r\n\r\n    function burn(uint256 tokenId) external returns (bool){\r\n        uint nftIndex = nftIndexOfOwner[msg.sender][tokenId];\r\n        nftListOfOwner[msg.sender][nftIndex] = 0;\r\n        nftOwner[tokenId] = address(0x0);\r\n        uriOf[tokenId] = \"\";\r\n        approvedOf[tokenId] = address(0x0);\r\n        nftCountOfOwner[msg.sender] --;\r\n        nftIndexInCollection[tokenId] = lastNftIndexOfCollection;\r\n        nftFromCollection[lastNftIndexOfCollection] = 0;\r\n        totalSupplyCounter --;\r\n        emit Transfer(msg.sender, address(0x0), tokenId);\r\n        return true;\r\n    }\r\n\r\n    function totalSupply() external view returns (uint256){\r\n        return totalSupplyCounter;\r\n    }\r\n\r\n    function tokenURI(uint256 _tokenId) external view returns (string memory){\r\n        return string(uriOf[_tokenId]);\r\n    }\r\n\r\n    function tokenByIndex(uint256 _index) external view returns (uint256){\r\n        require(_index <= lastNftIndexOfCollection, \"06\");\r\n        // 06: The NFT index is invalid!\r\n        return nftFromCollection[_index];\r\n    }\r\n\r\n    function balanceOf(address _owner) external view returns (uint256){\r\n        require(_owner != address(0x0), \"01\");\r\n        // 01: Zero address is not valid!\r\n        return nftCountOfOwner[_owner];\r\n    }\r\n\r\n    function tokenOfOwnerByIndex(address _owner, uint256 _index) external view returns (uint256){\r\n        require(_index <= nftCountOfOwner[_owner], \"06\");\r\n        return nftListOfOwner[_owner][_index];\r\n    }\r\n\r\n    function ownerOf(uint256 _tokenId) external view returns (address){\r\n        require(nftOwner[_tokenId] != address(0x0), \"02\");\r\n        // 02: The token is invalid!\r\n        return (nftOwner[_tokenId]);\r\n    }\r\n\r\n    function collectionRename(bytes calldata newName, bytes calldata newSymbol) external {\r\n        require(collectionOwner == msg.sender, \"08\");\r\n        // 08: Only collection owner can rename it!\r\n        emit CollectionRename(collectionName, newName, collectionSymbol, newSymbol);\r\n        collectionName = newName;\r\n        collectionSymbol = newSymbol;\r\n    }\r\n\r\n    function safeTransferFrom(address _from, address _to, uint256 _tokenId, bytes calldata data) external justTransfer(_from, _to, _tokenId) payable{    \r\n        // Ensure if the recipient is a contract it handles the NFT receipt:\r\n        uint codeSize;\r\n        address operator = msg.sender;\r\n        assembly{\r\n            codeSize := extcodesize(_to)\r\n        }\r\n        if(codeSize > 0){\r\n            recipientContractAddress = _to;\r\n            bytes4 functionSelector = this.onERC721Received(operator, _from, _tokenId, data);\r\n            require(functionSelector == bytes4(keccak256(\"onERC721Received(address,address,uint256,bytes)\")), \"04\");\r\n            // 04: The recipient contract couldn't handle the NFT receipt!\r\n        }\r\n        emit Transfer(_from, _to, _tokenId);\r\n        emit Approval(msg.sender, address(0x0), _tokenId);\r\n    }\r\n\r\n    function safeTransferFrom(address _from, address _to, uint256 _tokenId) external payable{\r\n        this.safeTransferFrom(_from, _to, _tokenId, \"\");\r\n    }\r\n\r\n    function transferFrom(address _from, address _to, uint256 _tokenId) external justTransfer(_from, _to, _tokenId) payable{\r\n        emit Transfer(_from, _to, _tokenId);\r\n        emit Approval(msg.sender, address(0x0), _tokenId);\r\n    }\r\n\r\n    function approve(address _approved, uint256 _tokenId) external payable{\r\n        require(nftOwner[_tokenId] == msg.sender, \"05\");\r\n        // 05: The account is not authorized!;\r\n        approvedOf[_tokenId] = _approved;\r\n        emit Approval(msg.sender, _approved, _tokenId);\r\n    }\r\n\r\n    function setApprovalForAll(address _operator, bool _approved) external{\r\n        approvedForAllNFTsOf[msg.sender][_operator] = _approved;\r\n        emit ApprovalForAll(msg.sender, _operator, _approved);\r\n    }\r\n\r\n    function getApproved(uint256 _tokenId) external view returns (address){\r\n        return approvedOf[_tokenId];\r\n    }\r\n\r\n    function isApprovedForAll(address _owner, address _operator) external view returns (bool){\r\n        return approvedForAllNFTsOf[_owner][_operator];\r\n    }\r\n\r\n    function interfaceIdGenerator() private pure returns(bytes4, bytes4, bytes4){\r\n            bytes4 erc721Id = bytes4(keccak256(\"balanceOf(address)\")) ^\r\n                            bytes4(keccak256(\"ownerOf(uint256)\")) ^\r\n                            bytes4(keccak256(\"safeTransferFrom(address,address,uint256,bytes)\")) ^\r\n                            bytes4(keccak256(\"safeTransferFrom(address,address,uint256)\")) ^\r\n                            bytes4(keccak256(\"transferFrom(address,address,uint256)\")) ^\r\n                            bytes4(keccak256(\"approve(address,uint256)\")) ^\r\n                            bytes4(keccak256(\"setApprovalForAll(address,bool)\")) ^\r\n                            bytes4(keccak256(\"getApproved(uint256)\")) ^\r\n                            bytes4(keccak256(\"isApprovedForAll(address,address)\"));\r\n            bytes4 erc721MetadataId = this.name.selector ^ this.symbol.selector ^ this.tokenURI.selector;\r\n            bytes4 erc721EnumerableId = this.totalSupply.selector ^ this.tokenByIndex.selector ^ this.tokenOfOwnerByIndex.selector;\r\n            return (erc721Id, erc721MetadataId, erc721EnumerableId);\r\n    }\r\n    function onERC721Received(address _operator, address _from, uint256 _tokenId, bytes calldata _data) external returns(bytes4){\r\n        IERC721TokenReceiver recipientContract = IERC721TokenReceiver(recipientContractAddress);\r\n        return recipientContract.onERC721Received(_operator, _from, _tokenId, _data);\r\n    }\r\n}",
  "sourcePath": "E:\\smartContract\\contracts\\erc721.sol",
  "compiler": {
    "name": "solc",
    "version": "0.5.12+commit.7709ece9.Emscripten.clang"
  },
  "schemaVersion": "3.4.16",
  "updatedAt": "2024-06-22T10:37:38.076Z",
  "networkType": "ethereum",
  "devdoc": {
    "methods": {}
  },
  "userdoc": {
    "methods": {}
  }
}